:020000040000FA
:100000000C9403010C94B40F0C948D0F0C94FA1003
:100010000C94FA100C94FA100C942B010C942B01F4
:100020000C942B010C942B010C942B010C942B01A0
:100030000C942B010C942B010C942B010C942B0190
:100040000C94430F0C942B010C94110F0C94EB0E99
:100050000C942B010C942B010C942B010C942B0170
:100060000C94DB0F0C942B01546865206E6577208F
:100070006D6F64652069732000636F6E66696775D4
:10008000726174696F6E006D61696E74656E616E28
:1000900063650065636F006E6F726D616C000000D8
:1000A0000000240027002A000000000800020100D0
:1000B00000030407000000000000000020002000F2
:1000C0002F002F002020003A003A005254432072A3
:1000D000656164206572726F722120506C65617376
:1000E0006520636865636B2E005468652052544335
:1000F0002069732073746F707065642E20506C6576
:100100006173652072756E20746865207365744430
:1001100061746500203D20004E65772076616C7526
:100120006520666F72200020616E642000506C6153
:100130006365207365742061206E756D6265722041
:100140006265747765656E2000546869732070611C
:1001500072616D6574657220646F65736E277420BB
:1001600065786973742021002D2D2D2D2D2D2D2DB9
:100170002D2D2D2D2D2D2D2D2D2D00203A20002D16
:100180002D2D2D2D2D2D2D2D2D2D2D2D2D2D2D2D9F
:100190002D00546865206261746368206E756D621D
:1001A0006572206973203A20005468652076657274
:1001B00073696F6E206F662070726F6772616D2059
:1001C0006973203A20000000000023002600290067
:1001D00000000000250028002B000404040404048F
:1001E00004040202020202020303030303030102E6
:1001F00004081020408001020408102001020408B5
:100200001020BA112A1F11241FBECFEFD8E0DEBF85
:10021000CDBF25E0A6E2B2E001C01D92A137B20732
:10022000E1F712E0A0E0B1E0E0E9FBE402C00590F4
:100230000D92A632B107D9F711E0C2E0D1E004C0B7
:100240002197FE010E948A23C130D107C9F70E947D
:10025000E4140C94BB250C9400000895089580913B
:10026000ED039091EE03891B990B08950895AF92C9
:10027000BF92CF92DF92EF92FF920F931F93CF9393
:10028000DF936C017B018B01040F151FEB015E01F5
:10029000AE18BF08C017D10759F06991D601ED918A
:1002A000FC910190F081E02DC6010995892B79F729
:1002B000C501DF91CF911F910F91FF90EF90DF90DB
:1002C000CF90BF90AF900895FC014481558160812B
:1002D00071818AE493E00C943701FC01538D448DC5
:1002E000252F30E0842F90E0821B930B541710F0E1
:1002F000CF96089501970895FC01918D828D9817EE
:1003000061F0A28DAE0FBF2FB11D5D968C91928DC5
:100310009F5F9F73928F90E008958FEF9FEF0895F6
:10032000FC01918D828D981731F0828DE80FF11DBF
:10033000858D90E008958FEF9FEF0895FC01918DDA
:10034000228D892F90E0805C9F4F821B91098F73D3
:10035000992708958AE493E00E949E0121E0892B69
:1003600009F420E0822F089580E090E0892B29F0A5
:100370000E94AA0181110C9400000895FC01A48D33
:10038000A80FB92FB11DA35ABF4F2C91848D90E0B7
:1003900001968F739927848FA689B7892C93A0899A
:1003A000B1898C91837080648C93938D848D981324
:1003B00006C00288F389E02D80818F7D80830895B7
:1003C000EF92FF920F931F93CF93DF93EC0181E0A5
:1003D000888F9B8D8C8D98131AC0E889F98980814C
:1003E00085FF15C09FB7F894EE89FF896083E8897F
:1003F000F98980818370806480839FBF81E090E071
:10040000DF91CF911F910F91FF90EF900895F62EFD
:100410000B8D10E00F5F1F4F0F731127E02E8C8D97
:100420008E110CC00FB607FCFACFE889F9898081DC
:1004300085FFF5CFCE010E94BE01F1CFEB8DEC0F11
:10044000FD2FF11DE35AFF4FF0829FB7F8940B8FF9
:10045000EA89FB8980818062CFCF0F931F93CF936E
:10046000DF938C01D0E0C0E0F801EC0FFD1F649138
:10047000662341F08AE493E00E94E001892B11F0A9
:100480002196F2CFCE01DF91CF911F910F91089568
:10049000CF93DF93EC01888D8823B9F0AA89BB89BB
:1004A000E889F9898C9185FD03C0808186FD0DC0A6
:1004B0000FB607FCF7CF8C9185FFF2CF808185FFC7
:1004C000EDCFCE010E94BE01E9CFDF91CF9108951B
:1004D000833081F028F4813099F08230A9F00895BA
:1004E0008730A9F08830C9F08430B1F48091800061
:1004F0008F7D03C0809180008F7780938000089566
:1005000084B58F7784BD089584B58F7DFBCF8091AE
:10051000B0008F778093B00008958091B0008F7DF8
:10052000F9CFCF93DF93282F30E0F901E855FF4F43
:100530008491F901E251FE4FD491F901E652FE4F48
:10054000C491CC23A1F081110E946802EC2FF0E04D
:10055000EE0FFF1FEA53FE4FA591B491EC91ED23EE
:1005600081E090E009F480E0DF91CF91089580E090
:1005700090E0FACF1F93CF93DF93282F30E0F9015B
:10058000E855FF4F8491F901E251FE4FD491F901F2
:10059000E652FE4FC491CC23A9F0162F81110E9480
:1005A0006802EC2FF0E0EE0FFF1FE053FE4FA59125
:1005B000B4918FB7F894EC91111108C0D095DE2357
:1005C000DC938FBFDF91CF911F910895DE2BF8CF81
:1005D000CF93DF9390E0FC01E251FE4F24918652CD
:1005E0009E4FFC0184918823C9F090E0880F991FE9
:1005F000FC01E256FF4FA591B491FC01E053FE4F80
:10060000C591D49161110DC09FB7F8948C9120953C
:1006100082238C938881282328839FBFDF91CF91E9
:100620000895623051F49FB7F8943C91822F8095E1
:1006300083238C93E8812E2BEFCF8FB7F894EC9126
:100640002E2B2C938FBFEACF3FB7F8948091B10245
:100650009091B202A091B302B091B40226B5A89BCA
:1006600005C02F3F19F00196A11DB11D3FBFBA2F44
:10067000A92F982F8827BC01CD01620F711D811D04
:10068000911D42E0660F771F881F991F4A95D1F789
:1006900008952FB7F8946091AD027091AE028091E9
:1006A000AF029091B0022FBF08950F931F930E9445
:1006B00049036093520370935303809354039093C0
:1006C00055038AE493E00E947C0197FF1DC00E94BD
:1006D0004903009152031091530320915403309128
:1006E0005503601B710B820B930B00914E0310910D
:1006F0004F03209150033091510360177107820717
:100700009307F8F28FEF9FEF1F910F9108950E94CA
:1007100049036093FD037093FE038093FF0390935E
:10072000000481E08093B70208950C948703089534
:1007300020918902260F3327331F21323105ECF433
:1007400020914403FC0190E080E0243069F082E0D5
:100750000895A09189022191AC0147595D4FA40FE2
:10076000B52FB11D2C930196861798F380918902BD
:10077000680F6093890280E0089581E008951092E7
:10078000440381E08093230310921E0361E082E121
:100790000E94BA0261E083E10E94BA02E9EBF0E054
:1007A00080818E7F808380818D7F808388E48093A9
:1007B000B80085E48093BC000895CF93DF9391E067
:1007C000909368028823B9F0C091B800D091BA0024
:1007D0008091BC008A7B8093BC0060E082E10E9433
:1007E000BA0260E083E10E94BA020E94BF03D09384
:1007F000BA00C093B800DF91CF910895CF92DF92F5
:10080000EF92FF920F931F93CF93DF93D82FC62FB2
:10081000613208F098C00E9424036B017C01809132
:10082000440381116BC081E08093440380932303D0
:100830009FEF90932203109221039C0F909320032B
:1008400080931F0380911F03DD0FD82BD0931F03CC
:1008500080911E03813009F078C010921E030E941F
:1008600024036B017C0180911F038093BB00809166
:10087000460390914703A0914803B0914903892B07
:100880008A2B8B2BA1F00E94240300914603109128
:10089000470320914803309149036C197D098E0963
:1008A0009F09061717072807390708F448C08091E1
:1008B000BC0083FDD8CF85EC8093BC000E9424034C
:1008C0006B017C0180914403813009F440C0809128
:1008D00021038C1710F4C0912103EEEFF2E0A4E2A3
:1008E000B3E080E08C1355C08C2FDF91CF911F9126
:1008F0000F91FF90EF90DF90CF9008958091460385
:1009000090914703A0914803B0914903892B8A2B0A
:100910008B2B09F484CF0E9424030091460310918D
:10092000470320914803309149036C197D098E09D2
:100930009F09061717072807390708F070CF80911D
:1009400045030E94DD03C0E0CFCF85EEB5CF809197
:10095000460390914703A0914803B0914903892B26
:100960008A2B8B2B09F4AECF0E94240300914603FF
:100970001091470320914803309149036C197D0978
:100980008E099F09061717072807390708F09ACF1D
:10099000D6CF91919D938F5FA5CF8F929F92AF926B
:1009A000BF92CF92DF92EF92FF920F931F93CF935C
:1009B000DF93D091EB03D13208F0D7C0182FC0914C
:1009C000FD020E9424036B017C018091440381118C
:1009D0006BC082E080934403109323038FEF8093D6
:1009E000220310922103D0932003ADEDB2E0EEEF8D
:1009F000F2E080E0D81391C010921F0380911F0392
:100A0000CC0FC82BC0931F0380911E03813009F0C7
:100A100088C010921E030E9424036B017C01809108
:100A20001F038093BB008091460390914703A091E0
:100A30004803B0914903892B8A2B8B2BA1F00E948C
:100A400024030091460310914703209148033091FD
:100A500049036C197D098E099F0906171707280796
:100A6000390708F442C08091BC0083FDD8CF85ECE3
:100A70008093BC000E9424036B017C01809144039D
:100A8000823009F450C0809122038F3F09F46FC077
:100A900080912203803209F46CC08091220380335C
:100AA00009F469C084E026C0809146039091470311
:100AB000A0914803B0914903892B8A2B8B2B09F411
:100AC00084CF0E9424038090460390904703A09017
:100AD0004803B09049036C197D098E099F09861659
:100AE0009706A806B90608F070CF809145030E94CA
:100AF000DD0385E01092EC031092EB031092DC0210
:100B0000DF91CF911F910F91FF90EF90DF90CF90E9
:100B1000BF90AF909F908F9008959D9191938F5F1C
:100B200069CF85EEA5CF8091460390914703A091B0
:100B30004803B0914903892B8A2B8B2B09F49ECF54
:100B40000E9424030091460310914703209148031B
:100B5000309149036C197D098E099F090617170703
:100B60002807390708F08ACFC0CF81E0C3CF80E0E3
:100B7000C1CF82E0BFCF83E0BDCF0895E091EE0307
:100B80008091ED03E81730F4F0E0EC5DFC4F8081DC
:100B900090E008958FEF9FEF08959091EE0380917C
:100BA000ED032FEF3FEF981748F4E92FF0E0EC5DED
:100BB000FC4F208130E09F5F9093EE03C9010895C0
:100BC000CF92DF92EF92FF920F931F93CF93DF9319
:100BD0007C01CB018A012091DC02222389F0EB0108
:100BE0006B01C40ED51ECC15DD0569F06991D701E6
:100BF000ED91FC910190F081E02DC7010995F3CFB3
:100C0000642F0E949803C801DF91CF911F910F912B
:100C1000FF90EF90DF90CF900895CF93DF931F92D6
:100C2000CDB7DEB769832091DC022223F9F0209151
:100C3000EB03203258F021E030E0FC0133832283C3
:100C400090E080E00F90DF91CF9108958091EC03C8
:100C5000E82FF0E0E352FD4F998190838F5F8093FE
:100C6000EC038093EB0381E090E0ECCF61E0CE01F8
:100C700001960E949803F7CF2091FB033091FC036B
:100C80002817390771F490916702809166029817CE
:100C900041F0E0916702F0E0EA5DFD4F808190E075
:100CA00008958FEF9FEF0895EF92FF920F931F9398
:100CB000CF93DF93DC015C96ED90FC905D97E1149F
:100CC000F10479F481E090E013969C938E9312974F
:100CD00090E080E0DF91CF911F910F91FF90EF9016
:100CE00008955196ED91FC91529750968C915097A2
:100CF000982F90950FB75E962C915E97122F1270D9
:100D000021FD6095F8942081112319F1282B20836F
:100D1000E7012197F1F728E0462F50E0308160FF8E
:100D20001AC0382B3083E7012197F1F7BA01759586
:100D30006795215089F7112381F080818923808371
:100D40000FBF5C968D919C910197F1F781E090E047
:100D5000C1CF2923DCCF3923E5CF9081892BEFCF79
:100D60002091FB033091FC032817390771F480911F
:100D700066022091670290E0805C9F4F821B910980
:100D800060E470E00E94CD21089590E080E0089535
:100D90002091FB033091FC0328173907B9F4909197
:100DA000670280916602981789F0E0916702F0E08F
:100DB000EA5DFD4F80812091670230E02F5F3F4F59
:100DC0002F7333272093670290E008958FEF9FEFF2
:100DD000089590E080E00895EF92FF920F931F93A3
:100DE000CF93DF938C01D62FC8E08BE4E82EF12C53
:100DF000F801818161E0D7FF60E00E94BA0260E003
:100E0000F80180810E94BA02C7010197F1F761E001
:100E1000F80180810E94BA02C7010197F1F7DD0F46
:100E2000C15031F7DF91CF911F910F91FF90EF905B
:100E300008959F92AF92BF92CF92DF92EF92FF926E
:100E40000F931F93CF93DF93EC01E62ED42EC22E87
:100E500060E00E94EC0660E0CE010E94EC0660E0DB
:100E6000CE010E94EC0660E0CE010E94EC0610E08C
:100E700083E0B82E8A81181708F046C01B9D9001A8
:100E80001124A9014F5F5F4FB9016E5F7F4F1E11A3
:100E90000FC0EB81FC81E20FF31FD082EB81FC815C
:100EA000E40FF51FC082EB81FC81E60FF71F008382
:100EB0008B819C81680F791FFB01F080480F591FBF
:100EC000FA019080820F931FFC01A08060ECF7FE76
:100ED00060EEF6FE606197FE686096FE6460A7FEB5
:100EE0006260A6FE6160CE010E94EC066F2DCE010D
:100EF0000E94EC06692DCE010E94EC066A2DCE01FF
:100F00000E94EC061F5FB6CF60E0CE010E94EC06A7
:100F100060E0CE010E94EC0660E0CE010E94EC068B
:100F200060E0CE01DF91CF911F910F91FF90EF9084
:100F3000DF90CF90BF90AF909F900C94EC06CF9332
:100F4000C42FFC0184A991E09093DC028093FD0200
:100F50001092EC031092EB038FEE93E00E940D06CB
:100F60006C2F8FEE93E00E940D0681E00E94CD046D
:100F700081E0CF9108950F931F93CF93DF93EC01FE
:100F80000A81802F8295880F807E0E81000F000FCE
:100F9000082B8885082B1A85812F8295880F807EE3
:100FA0001C85110F110F182B8E85182BE881F981E4
:100FB0000280F381E02D4C8162EFCE010995E8813A
:100FC000F9810280F381E02D402F64EFCE01099575
:100FD000E881F9810280F381E02D412F65EFCE0198
:100FE000DF91CF911F910F910994FF920F931F935F
:100FF000CF93DF931F92CDB7DEB78C01DC01ED916B
:10100000FC910480F581E02D21E0AE014F5F5F4F40
:1010100060ED09958981883509F447C0803609F06B
:101020004CC020E630E0F80132AB21ABD801D096BD
:101030008C93D097ED91FC910480F581E02D26E012
:10104000A801405F5F4F68E8C8010995F82ED801F4
:10105000ED91FC910480F581E02D22E1A8014A5E2A
:101060005F4F6EE8C8010995F822D801ED91FC9117
:101070000480F581E02D21E0A801485D5F4F61EA21
:10108000C8010995F822D801ED91FC910480F58101
:10109000E02D27E0A801475D5F4F61EEC80109958B
:1010A000F822C8010E94BB070CC028E530E0D80137
:1010B000D2963C932E93D197B9CFF80112AA11AAD8
:1010C000F12CF801F3AA8F2D0F90DF91CF911F9192
:1010D0000F91FF900895CF93DF93C1E0C093DC029E
:1010E00088E68093FD021092EC031092EB0360E01F
:1010F0008FEE93E00E940D0681E00E94CD048823CC
:1011000021F01092DB0280E070C0C093DB0267E048
:1011100088E60E94FE031092EE038093ED03873071
:1011200090F38FEE93E00E94CD05C82F982F9295F3
:101130009770DAE08C2F8F709D9F800D1124809323
:10114000D4028FEE93E00E94CD05982F92959F7068
:101150008F709D9F800D11248093D5028FEE93E0B8
:101160000E94CD05982F929593708F709D9F800D52
:1011700011248093D6028FEE93E00E94CD05982F24
:1011800092959F708F709D9F800D11248093D70240
:101190008FEE93E00E94CD05982F92959F708F70EF
:1011A0009D9F800D11248093D8028FEE93E00E94C2
:1011B000CD05982F92959F708F709D9F800D112463
:1011C0008093D9028FEE93E00E94CD05982F9F70F7
:1011D000925E82958F708D9F900D11249093DA020C
:1011E0008C2F8095881F8827881FDF91CF910895C5
:1011F000EF92FF920F931F93CF93DF938C017A01AD
:10120000D22FFC0184A991E09093DC028093FD022F
:101210001092EC031092EB038FEE93E00E940D0608
:1012200081E00E94CD046D2FD13208F060E2F80118
:1012300084A90E94FE03182F1092EE038093ED0301
:10124000C0E08091EE03181751F08FEE93E00E94FA
:10125000CD05F701EC0FF11D8083CF5FF2CF81E068
:10126000CD1380E0DF91CF911F910F91FF90EF9010
:1012700008957F928F929F92AF92BF92CF92DF920A
:10128000EF92FF920F931F93CF93DF935C018B013B
:101290007A01D0E0C0E0CE15DF0509F181E0E81663
:1012A000F10419F4002E000C110BCE0123E0880F7D
:1012B000991F2A95E1F7680102C0D594C7948A95D1
:1012C000E2F745018C0E9D1EC4010E94DF20C81666
:1012D00021F06C2DC4010E94E7202196DCCFDF9124
:1012E000CF911F910F91FF90EF90DF90CF90BF9023
:1012F000AF909F908F907F9008950F931F93CF93FF
:10130000DF93CEE5D4E010E000E085E0CE32D807F0
:1013100061F04C8550E068817981C8010E943909EB
:101320008C85080F111D2D96F0CFDF91CF911F9165
:101330000F9108958F929F92AF92BF920F931F9338
:10134000CF93DF93CDB7DEB7A1970FB6F894DEBF8A
:101350000FBECDBF19A2423008F44AE08E010F5DE6
:101360001F4F842E912CB12CA12CA50194010E9419
:10137000E121E62FB901CA01EA3044F5E05DD80168
:10138000EE938D01232B242B252B79F790E080E021
:10139000109769F0FD0101900020E9F73197AF0146
:1013A0004A1B5B0BBD018AE493E00E943701A196C2
:1013B0000FB6F894DEBF0FBECDBFDF91CF911F9166
:1013C0000F91BF90AF909F908F900895E95CD7CF19
:1013D000682F70E090E080E04AE00C949A09CF9288
:1013E000DF92EF92FF92CF93DF936B017C016DE26E
:1013F0008AE493E00E94E001EC0166277727CB01A5
:101400006C197D098E099F094AE00E949A098C0F88
:101410009D1FDF91CF91FF90EF90DF90CF900895C7
:10142000BC01990F880B990B97FD0C94EF094AE0CA
:101430000C949A0942E050E06CE471E08AE493E095
:101440000C943701CF93DF930E942D02EC010E9490
:101450001A0A8C0F9D1FDF91CF910895CF93DF93D0
:10146000BC01990F880B990B97FF0AC00E94EF09E6
:10147000EC010E941A0A8C0F9D1FDF91CF910895F5
:101480004AE00E949A09F4CFCF93DF93EC01888160
:101490009981009711F00E944824198218821D82B8
:1014A0001C821B821A82DF91CF910895FC018081FA
:1014B0009181009711F00C94482408950F931F9385
:1014C000CF93DF938C01EB01FC0180819181009728
:1014D000E1F06881798161157105A9F0428153813C
:1014E0002C813D814217530770F00E94B4258C81F6
:1014F0009D81F801958384831D821C82DF91CF91A9
:101500001F910F9108950E94482488819981F801C4
:10151000918380838A819B81938382838C819D8147
:1015200095838483198218821B821A82E5CF0E94D8
:101530008E25FC0124813581232B39F421E0FB0128
:101540008081882349F020E007C0808191810E943A
:10155000AB2521E0892BB9F7822F0895CF93DF9334
:10156000EC01A881B981EB01E881F9811097F1F0D4
:101570003097B1F4EC018C819D81892BC9F08C915D
:1015800090E00BC0DB0114968D919C91892B81F02A
:10159000808190E0919581959109DF91CF91089597
:1015A000BF01CD01DF91CF910C94AB25309751F75E
:1015B00090E080E0F2CFAF92BF92CF92DF92EF92B5
:1015C000FF920F931F93CF93DF935C016B010EE5A6
:1015D00014E0D0E0C0E0F12CE12C81E0C816D10489
:1015E00009F4E701F80126813781F50184819581AD
:1015F0002817390771F4B501C80102960E94AE0A96
:10160000892B39F4F2E0CF16D10499F4C1E0D0E08F
:1016100010C0C114D10421F4F8018485C80FD11D74
:10162000FFEFEF1AFF0A035F1F4F80E1E816F10496
:10163000A1F6CE01DF91CF911F910F91FF90EF9016
:10164000DF90CF90BF90AF9008950F931F93CF93EB
:10165000DF93EC0188819981009759F02A813B81C1
:101660002617370730F081E0DF91CF911F910F915E
:1016700008958B016F5F7F4F0E94D124009759F02E
:10168000998388831B830A832C813D81232B59F7FF
:10169000FC011082E8CF80E0E7CFEF92FF920F933A
:1016A0001F93CF93DF93EC018B01CB010E94911F1D
:1016B0007C01BC01CE010E94250B81110BC0CE0123
:1016C0000E94440ACE01DF91CF911F910F91FF90AC
:1016D000EF900895FD82EC82B801888199810E9483
:1016E0008A1FF0CFEF92FF920F931F93CF93DF9358
:1016F000EC017B018A01BA010E94250B81110BC00C
:10170000CE010E94440ACE01DF91CF911F910F912B
:10171000FF90EF9008951D830C83B7018881998114
:101720000E94B425F0CFFB01DC0111961C921E92A1
:1017300013961C921E92129715961C921E92149745
:101740008617970749F0608171816115710521F055
:10175000448155810C94720B0895AF92BF92CF9241
:10176000DF92EF92FF920F931F93CF93DF9300D0FE
:1017700000D000D0CDB7DEB78C01BC01CE01019600
:101780000E94930B70E060E0CE0101960E94DB0A9C
:101790005C01CE0101960E94560AB801CE01019665
:1017A0000E94930B61E070E0CE0101960E94DB0A7B
:1017B0002DE0289FF001299FF00D1124E25AFB4FE4
:1017C000C484D12C10E000E0F12CE12C0C151D0597
:1017D000B4F4C501800F911F0E94DF2090E09801B2
:1017E00043E0220F331F4A95E1F702C0880F991F8B
:1017F0002A95E2F7E82AF92A0F5F1F4FE7CFCE01BB
:1018000001960E94560AC70126960FB6F894DEBFCD
:101810000FBECDBFDF91CF911F910F91FF90EF9041
:10182000DF90CF90BF90AF900895CF92DF92EF926C
:10183000FF920F931F93CF93DF9300D000D000D07F
:10184000CDB7DEB7BC01CE0101960E94930BCD80CF
:10185000DE808EE2E82E85E0F82E10E0F70184812C
:1018600095818C159D0541F4BE016F5F7F4FC701C7
:101870000E94AE0A892B39F081E0810FF9E0EF0E6A
:10188000F11C873069F5CE0101960E94560A9091AD
:101890000304209102048091010489832A839B839D
:1018A00061E00E94E80261E08A810E94E8028B8187
:1018B00061E070E023E0829FC00111240E94902328
:1018C0009D838C83F12C8B81F81660F400E020E07E
:1018D00040E06F2DCE0101960E941907F394F3CFDB
:1018E000182FBCCF89E0189FF0011124E25DFA4F58
:1018F00000852781468160E0CE0101960E9419078C
:101900008C819D810E94482426960FB6F894DEBFF4
:101910000FBECDBFDF91CF911F910F91FF90EF9040
:10192000DF90CF900895CF93DF9300D000D000D008
:10193000CDB7DEB7BC01CE0101960E94930BCE015C
:1019400001960E94150CCE0101960E94560A269619
:101950000FB6F894DEBF0FBECDBFDF91CF910895D3
:101960004F925F926F927F92AF92BF92CF92DF922F
:10197000EF92FF920F931F93CF93DF9300D000D08D
:1019800000D0CDB7DEB75C018B01442E0E94490325
:101990006B017C0180910501882309F446C0809188
:1019A000D0029091D102A091D202B091D3028C19B1
:1019B0009D09AE09BF0989519C4FAF4FBF4F8F3C66
:1019C0009740A105B10550F0C092D002D092D1024B
:1019D000E092D202F092D3021092050180910501AB
:1019E000B501811101C0B801CE0101960E94930B8F
:1019F000CE0101960E94150CCE0101960E94560A56
:101A000026960FB6F894DEBF0FBECDBFDF91CF9103
:101A10001F910F91FF90EF90DF90CF90BF90AF900C
:101A20007F906F905F904F900895C701B60128EEA8
:101A300033E040E050E00E940322512C712C612CD5
:101A4000CA01B901A30192010E940322672B682BEE
:101A5000692B21F68091D0029091D102A091D202FF
:101A6000B091D3028C199D09AE09BF0989519C4FD1
:101A7000AF4FBF4F8F3C9740A105B10508F4AECFE3
:101A8000C092D002D092D102E092D202F092D30260
:101A900081E080930501A2CFFC01118210821382A4
:101AA000128215821482FB0101900020E9F7319720
:101AB000AF01461B570B0C94720BCF93DF9300D0F2
:101AC00000D000D0CDB7DEB789EA91E00E942D02A8
:101AD0006FE471E0CE0101960E944C0DCE0101969B
:101AE0000E94AD0B0E942E0ACE0101960E94560A5A
:101AF00082E991E00E942D0284E094E00E9464015A
:101B00000E941A0A26960FB6F894DEBF0FBECDBF0C
:101B1000DF91CF9108950F931F93CF93DF93CDB7AC
:101B2000DEB72C970FB6F894DEBF0FBECDBF8FE7A0
:101B300091E00E94220A0E945D0D10E000E0035F28
:101B40001F4F0D3D110529F1B8016D5A7B4FCE0194
:101B500007960E94930BCE0107960E9464018BE7C3
:101B600091E00E942D02BE01695F7F4FCE01019678
:101B70000E94930BCE0101960E94AD0B0E942E0A8B
:101B8000CE0101960E94560ACE0107960E94560A7F
:101B9000D6CF88E691E00E94220A2C960FB6F894E0
:101BA000DEBF0FBECDBFDF91CF911F910F91089582
:101BB0008F929F92AF92BF92CF92DF92EF92FF925D
:101BC0000F931F93CF93DF93EC018B01FB01C48034
:101BD000D580D60111972FEF3FEFB12CA12C90E0CB
:101BE00080E070E060E0A817B9072CF146175707AE
:101BF00034F1FC0131967F018C159D0560F4F801EC
:101C0000808091808114910431F0F401E80FF91F74
:101C1000E081ED3319F0A817B90759F46F5F7F4FD2
:101C20005901FFEFAF1ABF0A9701A817B90709F0CA
:101C30009C01C701D8CF461757070CF046C0690171
:101C40002A153B0510F0650159016EE471E0CE01E3
:101C50000E944C0DF801E480F580CE14DF0418F5E5
:101C6000AE14BF0408F47501F80160817181FB01B5
:101C7000EE0DFF1DB08010826C0D7D1D611571058C
:101C800001F1FB0101900020E9F73197AF01461BFC
:101C9000570BCE010E94720BF80180819181E80EF2
:101CA000F91EF701B082CE01DF91CF911F910F9104
:101CB000FF90EF90DF90CF90BF90AF909F908F906C
:101CC0000895CE010E94440AE7CF6EE471E0CE0190
:101CD0000E944C0DE8CF0F931F93CF93DF9300D05A
:101CE00000D000D0CDB7DEB78C019093CF028093A7
:101CF000CE026EE471E0CE0101960E944C0D0130DF
:101D0000110559F1ECF467E970E0012B09F188E65F
:101D100090E00E942D02CE0101960E9464010E9473
:101D20001A0ACE0101960E94560A26960FB6F8941A
:101D3000DEBF0FBECDBFDF91CF911F910F910895F0
:101D40000230110569F069E770E003301105F9F61A
:101D5000CE0101960E944D0BDACF63E970E0F8CF17
:101D600067E870E0F5CF85ED8093BC008091460375
:101D700090914703A0914803B09149030796A11D94
:101D8000B11D23E0B695A795979587952A95D1F72C
:101D90002091BC0024FD03C010924403089540919B
:101DA0004603509147036091480370914903452BC6
:101DB000462B472B69F30097A105B10541F025E3B8
:101DC0002A95F1F700000197A109B109E1CF8091AF
:101DD00045030C94DD031F920F920FB60F9211244E
:101DE0002F933F934F935F936F937F938F939F9323
:101DF000AF93BF93EF93FF938AE493E00E94BE01F9
:101E0000FF91EF91BF91AF919F918F917F916F91D2
:101E10005F914F913F912F910F900FBE0F901F90A8
:101E200018951F920F920FB60F9211242F938F9334
:101E30009F93EF93FF93E0915A03F0915B038081AE
:101E4000E0916003F091610382FD1BC0908180915D
:101E500063038F5F8F7320916403821741F0E091D9
:101E60006303F0E0E65BFC4F958F80936303FF9183
:101E7000EF919F918F912F910F900FBE0F901F9018
:101E800018958081F4CF1F920F920FB60F921124F4
:101E90002F933F938F939F93AF93BF938091AD0206
:101EA0009091AE02A091AF02B091B0023091AC021D
:101EB00023E0230F2D3758F50196A11DB11D209366
:101EC000AC028093AD029093AE02A093AF02B093A8
:101ED000B0028091B1029091B202A091B302B09190
:101EE000B4020196A11DB11D8093B1029093B2027C
:101EF000A093B302B093B402BF91AF919F918F9121
:101F00003F912F910F900FBE0F901F90189526E8CC
:101F1000230F0296A11DB11DD2CF1F920F920FB6B3
:101F20000F9211242F933F934F935F936F937F935F
:101F30008F939F93AF93BF93EF93FF93E091020131
:101F4000F09103010995FF91EF91BF91AF919F919E
:101F50008F917F916F915F914F913F912F910F9052
:101F60000FBE0F901F9018951F920F920FB60F92F1
:101F700011242F933F934F935F936F937F938F938E
:101F80009F93AF93BF93EF93FF93E0910001F09184
:101F900001010995FF91EF91BF91AF919F918F91B1
:101FA0007F916F915F914F913F912F910F900FBE55
:101FB0000F901F9018951F920F920FB60F92112439
:101FC0002F933F934F935F936F937F938F939F9341
:101FD000AF93BF93EF93FF938091B900887F8036D2
:101FE00009F44AC0F0F5883209F4A7C018F5803129
:101FF00009F49BC0B8F4882309F4F9C0883009F4C7
:1020000094C0FF91EF91BF91AF919F918F917F917C
:102010006F915F914F913F912F910F900FBE0F9055
:102020001F901895883109F488C0803251F7809349
:10203000220314C0803409F49DC040F48033B9F306
:102040008833F9F68093220385ECB0C0803509F41B
:1020500085C0883509F496C0883499F60E94B30E7D
:10206000D0CF883909F48CC038F5883729F050F47E
:10207000883611F0803729F683E08093440310926C
:10208000AB0257C0883809F47BC0803919F080381A
:1020900009F0B7CF8091AB02803208F071C0E091B7
:1020A000AB0281E08E0F8093AB028091BB00F0E029
:1020B000E557FD4F80833DC0803B39F0E0F4803A26
:1020C00009F479C0883A09F09CCF84E080934403F6
:1020D00010928A0210928902E091E903F091EA03DA
:1020E00009958091890281110FC081E08093890256
:1020F0001092690209C0803C09F4A6CF883C09F41B
:10210000A3CF883B09F07DCFE0918A0281E08E0F5A
:1021100080938A02F0E0E759FD4F80818093BB00F5
:1021200090918A028091890229C080911F03809337
:10213000BB0085EC8093BC0064CF9091210380911B
:102140002003981758F5E091210381E08E0F8093CA
:102150002103F0E0E250FD4F8081E9CFE0912103BF
:1021600081E08E0F809321038091BB00F0E0E2506C
:10217000FD4F808390912103809120039817C8F22E
:1021800085E8D8CFE091210381E08E0F8093210371
:102190008091BB00F0E0E250FD4F808380912303EB
:1021A00081115CCF81E080931E0384EA8093BC00A0
:1021B0001092440326CF85EC8093BC001092440318
:1021C0008091AB02803230F4E091AB02F0E0E55751
:1021D000FD4F10826091AB0270E0E091E703F09157
:1021E000E8038BE892E009951092AB020ACF1092B7
:1021F000220334CF1F920F920FB60F9211242F9308
:102200003F934F935F936F937F938F939F93AF937E
:10221000BF93EF93FF93E091FB03F091FC033097A2
:1022200049F0A685B7858585968D91FF14C09C9150
:102230008923A1F4FF91EF91BF91AF919F918F916D
:102240007F916F915F914F913F912F910F900FBEB2
:102250000F901F9018959C91892361F7A389B489E9
:102260009C918589809589238C938689978901978C
:10227000F1F7608D718DA685B785558538E020E032
:10228000CB010197F1F7822F90E095958795282F44
:102290004C91452309F02068315091F7868D81FDDE
:1022A00020958091660290E001968F739927309176
:1022B0006702381799F0A0916602B0E0AA5DBD4FA1
:1022C0002C9380936602828D938D0197F1F7A389F9
:1022D000B4898C919589892B8C93ACCF868D816044
:1022E000868FF1CF0F931F93CF93DF9300D000D051
:1022F00000D0CDB7DEB7BC0184E094E00E94930B20
:102300006FE471E0CE0101960E944C0D61E070E037
:10231000CE0101960E94DB0A182FCE0101960E9481
:10232000560A8DE0189FF0011124E25AFB4F82E01B
:1023300090E0918380836FE471E0CE0101960E946A
:102340004C0DCE0101960E94AD0B8C01CE01019681
:102350000E94560A0230110511F00E947D0926964E
:102360000FB6F894DEBF0FBECDBFDF91CF911F91A6
:102370000F9108954F925F926F927F928F929F92EA
:10238000AF92BF92CF92DF92EF92FF920F931F9383
:10239000CF93DF9300D000D000D0CDB7DEB710923E
:1023A0004D0310924C0398EE492E93E0592E612C68
:1023B000712C40924E0350924F03609250037092E2
:1023C000510380E191E090934B0380934A0385ECA5
:1023D00090E0909357038093560384EC90E09093A1
:1023E00059038093580380EC90E090935B038093B3
:1023F0005A0381EC90E090935D0380935C0382EC40
:1024000090E090935F0380935E0386EC90E090935E
:10241000610380936003109263031092640310922F
:102420006503109266031092F2031092F10340923A
:10243000F3035092F4036092F5037092F60382E284
:1024400091E09093F0038093EF0367E571E08EE2F3
:1024500095E00E944C0D10923405109235051FEF47
:10246000109336056CE571E087E395E00E944C0D12
:1024700010933D0510923E0510923F0560E671E015
:1024800080E495E00E944C0D10924605109347059C
:102490001092480566E671E089E495E00E944C0DD3
:1024A00010934F0510935005109251056DE671E0A1
:1024B00082E595E00E944C0D1093580588E78093C3
:1024C000590510925A0564E771E08BE595E00E948A
:1024D0004C0D1093610510936205109363056AE734
:1024E00071E084E695E00E944C0D10926A0510920E
:1024F0006B0510926C0510925F0410925E046FE4FD
:1025000071E080E694E00E944C0D109267041092F6
:10251000660484E190E0909369048093680401E08C
:1025200000936A04EE24E394F12CF0926C04E092A0
:102530006B046EE771E08DE694E00E944C0D109202
:10254000740410927304F0927604E0927504009380
:10255000770488248A94912C90927904809278044C
:1025600065E871E08AE794E00E944C0D10928104C6
:1025700010928004CC24CA9443E0D42ED0928304D9
:10258000C092820412E01093840480E093E0909360
:102590008604809385046FE871E087E894E00E94E8
:1025A0004C0D10928E0410928D04D0929004C09223
:1025B0008F0410939104F0929304E09292046EE9D8
:1025C00071E084E994E00E944C0D10929B041092FB
:1025D0009A04F0929D04E0929C0400939E0486EF7E
:1025E0009FEF9093A00480939F046AE971E081EAD1
:1025F00094E00E944C0D58EDA52EBB24BA94B092E5
:10260000A804A092A70465E5C62ED12CD092AA04F6
:10261000C092A9041093AB048CE390E09093AD04B6
:102620008093AC0467EA71E08EEA94E00E944C0D5E
:10263000B092B504A092B404D092B704C092B6048C
:102640001093B804F092BA04E092B90464EB71E01C
:102650008BEB94E00E944C0D1092C2041092C104C6
:10266000F092C404E092C3040093C5041092C7041E
:102670001092C60469EB71E088EC94E00E944C0D66
:10268000B092CF04A092CE04D092D104C092D004D4
:102690001093D20482E390E09093D4048093D30407
:1026A00063EC71E085ED94E00E944C0DB092DC0487
:1026B000A092DB04D092DE04C092DD041093DF040C
:1026C000F092E104E092E0046DEC71E082EE94E0BF
:1026D0000E944C0D1092E9041092E804F092EB0471
:1026E000E092EA040093EC0482E593E09093EE0418
:1026F0008093ED0466ED71E08FEE94E00E944C0D46
:102700007CE2C72EDD24D394D092F604C092F50467
:102710008CE494E09093F8048093F7041093F90408
:10272000E8E3AE2EE4E0BE2EB092FB04A092FA04E1
:1027300063EE71E08CEF94E00E944C0DD0920305A3
:10274000C0920205B0920505A092040510930605FB
:102750008AE090E0909308058093070560EF71E0B0
:1027600089E095E00E944C0DF0921005E0920F0573
:1027700090921205809211051093130580E090E16C
:1027800090931505809314056EEF71E086E195E056
:102790000E944C0D80E094E090931D0580931C05F1
:1027A00080E090E290931F0580931E051093200512
:1027B0008EE190E090932205809321056CE072E019
:1027C00083E295E00E944C0DF0922A05E0922905E3
:1027D00090922C0580922B0510932D051092EE03FC
:1027E0001092ED031092EC031092EB030E94BF03D2
:1027F0008DE291E09093EA038093E9038EE291E009
:102800009093E8038093E7031092420410924104EE
:1028100040924304509244046092450470924604EE
:102820008EE391E09093400480933F04109256040D
:1028300010925504109258041092570410925A04A2
:102840001092590410925C0410925B0460915D0434
:102850006E7F6D7F60935D0466956170602785E093
:102860000E94BA0261E085E00E94E802E3EFF1E035
:10287000E491E0934F04EFEDF1E0E491F0E0EE0F2E
:10288000FF1FE053FE4F85919491909351048093E4
:10289000500460E084E00E94E80280915D0481FDC4
:1028A00004C061E084E00E94BA0284E080934B049B
:1028B000E2EFF1E0E491E0934C04EEEDF1E0E4911D
:1028C000F0E0EE0FFF1FEA53FE4F85919491909335
:1028D0004E0480934D0481E090E090930D0480932A
:1028E0000C0490930F0480930E0490931104809332
:1028F0001004909313048093120485E090E0909369
:102900001504809314041092170410921604109268
:1029100019041092180410923D0484E391E09093FE
:102920000B0480930A0486E780933E0464E172E01E
:10293000CE0101960E944C0DCE0101960E947211AB
:10294000CE0101960E94560A88E08093010489E036
:102950008093020481E0809303041092EE031092AE
:10296000ED031092EC031092EB030E94BF038DE283
:1029700091E09093EA038093E9038EE291E09093D3
:10298000E8038093E7030E9449036093FD0370937B
:10299000FE038093FF039093000426960FB6F894ED
:1029A000DEBF0FBECDBFDF91CF911F910F91FF9082
:1029B000EF90DF90CF90BF90AF909F908F907F90DF
:1029C0006F905F904F900895CF93DF93CDB7DEB7B0
:1029D000C357D1090FB6F894DEBF0FBECDBF7894B0
:1029E00084B5826084BD84B5816084BD85B5826014
:1029F00085BD85B5816085BD80916E0081608093C5
:102A00006E0010928100809181008260809381002D
:102A1000809181008160809381008091800081603D
:102A2000809380008091B10084608093B100809198
:102A3000B00081608093B00080917A0084608093C0
:102A40007A0080917A00826080937A0080917A0087
:102A5000816080937A0080917A00806880937A0008
:102A60001092C100E0915A03F0915B0382E08083F1
:102A7000E0915603F09157031082E0915803F091D2
:102A800059038FEC808310926203E0915E03F09112
:102A90005F0386E08083E0915C03F0915D038081B9
:102AA00080618083E0915C03F0915D0380818860A8
:102AB0008083E0915C03F0915D0380818068808376
:102AC000E0915C03F0915D0380818F7D80830E94A3
:102AD0008B0D62E083E00E94E80262E082E00E94E7
:102AE000E80285E993E090930301809302018091CD
:102AF0006900837F846080936900E99A87E893E0A6
:102B00009093010180930001809169008C7F816026
:102B100080936900E89A0E946B08882309F4FDC03D
:102B20008091D6020E94E80989EC90E00E942D0273
:102B30008091D5020E94E80987EC90E00E942D0266
:102B40008091D4020E94E80984EC90E00E942D025A
:102B50008091D8020E94E80982EC90E00E942D0248
:102B60008091D9020E94E80980EC90E00E942D0239
:102B70008091DA0290E08E54984F0E94100A8EEBFA
:102B800090E00E942D028CEB90E00E94220A1E0130
:102B900009E2200E311C80910401882349F083E072
:102BA0000E949102892B21F483E090E00E946B0E39
:102BB000109204010E9449030091FD031091FE034D
:102BC0002091FF0330910004601B710B820B930B6B
:102BD0006938734181059105E0F08091B70288233F
:102BE000C1F00091CE021091CF0282E00E949102CA
:102BF000892B09F09CC081E090E00115110509F4D2
:102C0000A4C090E080E00130110509F49EC010924C
:102C1000B7028091CE029091CF02039709F42BC79F
:102C200080E480937C0080917A00806480937A00B5
:102C300080917A0086FDFCCF909178008091790098
:102C40008927982789279093C9028093C802809189
:102C5000120490911304019721F48AE094E00E94F9
:102C6000BB0728E0AE014F5D5F4F67EF8AE094E05D
:102C70000E94F808FE01B196DE011196419150E0E4
:102C800070E060E04D935D936D937D93E215F305E5
:102C9000A9F7811164C020E030E040EC5FE72093A9
:102CA000B8023093B9024093BA025093BB0220930A
:102CB000C4023093C5024093C6025093C7022093CA
:102CC000C0023093C1024093C2025093C3020E94DB
:102CD0006B08082F65E871E0CE0101960E944C0D4B
:102CE000CE0101960E94AD0BE090C802F090C9029F
:102CF000E816F9060CF4E6C46FE871E0CE0181969F
:102D00000E944C0DCE0181960E94AD0BD12C8E15E8
:102D10009F050CF0EAC411E0D6C48091DB02882341
:102D200019F089EE90E031CF8BEC90E02ECF83E06C
:102D30000E949102892B09F06ACFC801029702977D
:102D400038F48091B5029091B6020E946B0E5FCF6D
:102D50001093B6020093B50282E090E0F6CF89802E
:102D60009A80AB80BC80A2968CAE9DAEAEAEBFAE5C
:102D7000A2978D809E80AF80B884A6968CAE9DAEC3
:102D8000AEAEBFAEA69789849A84AB84BC84AA9663
:102D90008CAE9DAEAEAEBFAEAA978D859E85AF853B
:102DA000B8891CE0880F991FAA1FBB1F1A95D1F77D
:102DB00049895A896B897C8904E0440F551F661F35
:102DC000771F0A95D1F7842B952BA62BB72B2D892E
:102DD0003E894F89588D64E05595479537952795DD
:102DE0006A95D1F7822B932BA42BB52B898C9A8CC7
:102DF000AB8CBC8CBA2CA92C982C88244D8D5E8D64
:102E00006F8D78A175016401C42AD52AE62AF72AB4
:102E1000AE96CCAEDDAEEEAEFFAEAE9740911A04EC
:102E200050911B0470E060E06C017D01E4E0F594DA
:102E3000E794D794C794EA95D1F7C41AD50AE60A5D
:102E4000F70AF3E0B595A79597958795FA95D1F789
:102E5000440F551F661F771F4C015D01841A950AA8
:102E6000A60AB70AA5019401A0911C04B0911D0403
:102E70000E9422224B015C010BE0B594A794979429
:102E800087940A95D1F7A7019601C701B6010E9460
:102E9000BD219B01AC018CE0559547953795279551
:102EA0008A95D1F7A0911E04B0911F040E9422229E
:102EB0002EE095958795779567952A95D1F77501B9
:102EC0006401C60ED71EE81EF91E2D96CCAEDDAEEF
:102ED000EEAEFFAE2D97A5E0B0E0A70196010E94EF
:102EE000F52060587F4F8F4F9F4F672F782F892F86
:102EF000992787FD9A950E94BF1F20E030E048EC9B
:102F000052E40E9446216093C4027093C5028093EC
:102F1000C6029093C70280902604AF968FAEAF97FB
:102F2000909027042F969FAE2F9780902804E296CA
:102F30008FAEE2979090290460969FAE6097809044
:102F40002A04E1968FAEE19790902B0428969FAECD
:102F5000289780902C04E4968FAEE49790902D04EF
:102F60006D969FAE6D9780902E04E3968FAEE3979B
:102F700090902F046C969FAE6C9780903004E096F2
:102F80008FAEE0979090310461969FAE6197FF0CF1
:102F9000CC08DC2C76012A962FAD2A972B963FADD4
:102FA0002B972C964FAD2C972D965FAD2D976C2DB2
:102FB0007C2D8C2D9C2D345F414051096109710994
:102FC0008109910925962FAF259726963FAF269721
:102FD00027964FAF2797552E3B014C015901C42E20
:102FE000D52E7B018C010E942A2265962FAF659712
:102FF00066963FAF669767964FAF679768965FAFE5
:10300000689769966FAF69976A967FAF6A976B9674
:103010008FAF6B976E969FAF6E9730912304209180
:103020002204932F990F990B492F592F692F792F2C
:10303000892F0E942A220CE00E9422232BAF29967E
:103040003FAF2997442E24965FAF24972E966FAFFB
:103050002E9762967FAF629763968FAF6397649661
:103060009FAF64973091250420912404932F990FEA
:10307000990B6596AFAC65976696BFAC66976796F9
:10308000CFAC67976896DFAC68976996EFAC6997A5
:103090006A96FFAC6A976B960FAD6B976E961FADF5
:1030A0006E97492F592F692F792F892F0E942A2235
:1030B00008E00E943B23ABAC2996BFAC2997C42CF7
:1030C0002496DFAC24972E96EFAC2E976296FFAC39
:1030D000629763960FAD639764961FAD64970E94E5
:1030E000582370588F4F9F4FE0912004F091210496
:1030F0005F01D12CC12CE12CF12C8701EBAFBCAED0
:10310000CDAEDEAEEFAE2196FFAE219722960FAF89
:10311000229723961FAF2397C12CD12CE12CF12CA1
:1031200000E010E00E942A2201E20E943B232BAF24
:1031300029963FAF299724964FAF24972E965FAFDD
:103140002E9762966FAF629763967FAF6397649690
:103150008FAF6497492EA0E00E946A2309F4ADC2A4
:10316000E1962FADE19728969FAD2897990F990B7F
:103170006596AFAC65976696BFAC66976796CFAC21
:1031800067976896DFAC68976996EFAC69976A961F
:10319000FFAC6A976B960FAD6B976E961FAD6E97EF
:1031A00028963FAD2897492F592F692F792F892FBE
:1031B0000E942A2228962FAF289765963FAF6597E1
:1031C00066964FAF669767965FAF679768966FAFE3
:1031D000689769967FAF69976A968FAF6A976B9683
:1031E0009FAF6B97E2962FADE29760969FAD609789
:1031F000990F990B2596AFAC25972696BFAC2697CD
:103200002796CFAC2797D52C7301840160963FADEC
:103210006097492F592F692F792F892F0E942A22D1
:1032200001E10E9422232896AFAC28976596BFAC97
:1032300065976696CFAC66976796DFAC679768969A
:10324000EFAC68976996FFAC69976A960FAD6A977D
:103250006B961FAD6B970E94582359016A017B0141
:10326000582E192FA6968CAD9DADAEADBFADA697CD
:1032700024E0880F991FAA1FBB1F2A95D1F7AA9691
:103280004CAD5DAD6EAD7FADAA9734E07595679599
:10329000579547953A95D1F7842B952BA62BB72BAD
:1032A000A2964CAD5DAD6EAD7FADA297ECE0440F44
:1032B000551F661F771FEA95D1F7842B952BA62BF8
:1032C000B72B20E030E040E150E0281B390B4A0BDF
:1032D0005B0B39014A01990C6608762C4301662D77
:1032E000762D862D962D0FE10E94222339014A0169
:1032F000B62FA72FF82FE92FAF962FADAF972F96A8
:103300009FAD2F97990F990B2F963FAD2F97492F70
:10331000592F692F792F892F03E20E942223052D2F
:103320000E94582359016A017B018C019301A40179
:103330006B2F7A2F8F2F9E2F0E946123A5E3AA2E39
:10334000BCE0BB2EC12CD12CE12CF12C00E010E014
:103350000E942A22ABAC2996BFAC29972496CFAC09
:1033600024972E96DFAC2E976296EFAC6297639609
:10337000FFAC639764960FAD6497142D0E9484226E
:1033800025962FAF259726963FAF269727964FAFC6
:1033900027975BAF2F966FAF2F9728967FAF289711
:1033A00060968FAF609729969FAF29970DE00E9496
:1033B0003B2324962FAF24972E969FAF2E97E0960F
:1033C0002FADE09761969FAD6197990F990B249669
:1033D000AFAC2497B32EC42ED52EE62EF72E082F91
:1033E0002E961FAD2E9761963FAD6197492F592FAD
:1033F000692F792F892F0E942A220E942A2209E10F
:103400000E943B232596AFAC25972696BFAC269706
:103410002796CFAC2797DBAC2F96EFAC2F9728964B
:10342000FFAC289760960FAD609729961FAD29973E
:103430000E94582361962FAF619724963FAF24973F
:103440002A013B014C01E3962FADE3976C969FADAB
:103450006C97990F990B6C963FAD6C97492F592F2C
:10346000692F792F892F0E942A2203E10E943B2392
:1034700059016A017B018C0161962FAD61972496F9
:103480003FAD2497A201B301C4010E94582308E074
:103490000E943B2359016A017B01E82F192FE49612
:1034A0002FADE4976D969FAD6D97990F990B6D9623
:1034B0003FAD6D97492F592F692F792F892F04E040
:1034C0000E9422230E2F0E945823B901CA010E9494
:1034D000BD1F20E030E040E85BE30E941E2020E0BA
:1034E00030E048EC52E40E9446216093C0027093A1
:1034F000C1028093C2029093C302209137042D969B
:10350000CCACDDACEEACFFAC2D973CE2D31A31E095
:10351000E30AF108AE968CAC9DACAEACBFACAE97F6
:103520003EE0880C991CAA1CBB1C3A95D1F78091EF
:10353000360440E1849FC0011124322F3F70832B59
:10354000092E000CAA0BBB0B44E1880F991FAA1F80
:10355000BB1F4A95D1F7881A990AAA0ABB0AA091FB
:10356000380450E1A59FD001112422952F70A22B81
:10357000A70196010E942222861A970AA80AB90A70
:1035800080E4980EA11CB11C6FE0B594A7949794A9
:1035900087946A95D1F7A0913504B0E00E94F52098
:1035A0002B013C017BE075946794579447947A957E
:1035B000D1F790E8590E611C711CA09139040A2EB4
:1035C000000CBB0B0E942222EAE095958795779527
:1035D0006795EA95D1F7A30192010E94BD219B0155
:1035E000AC01FAE05595479537952795FA95D1F7AF
:1035F000405E5F4FA0913304B09134040E942222B8
:10360000705E8F4F9F4FAEE0959587957795679544
:10361000AA95D1F7A50194010E94BD216B017C01FF
:10362000BFE09595879577956795BA95D1F79B01FA
:10363000AC010E94BD219B01AC0117E05595479557
:10364000379527951A95D1F7A0913204B0E00E94E2
:10365000F52004E095958795779567950A95D1F7BC
:10366000C61AD70AE80AF90AF7FE03C0C12CD12C02
:103670007601C701B601613071058105A9E19A079C
:1036800024F060E070E080E099E12CE0959587956A
:10369000779567952A95D1F70E94BD1F20E030E00D
:1036A00040E85AE30E941E206093B8027093B9026A
:1036B0008093BA029093BB020ACB60E070E080EC8A
:1036C0009FE713CF10E06EE771E0C1010E944C0D3F
:1036D000C1010E94AD0BDD24D394892B09F4D12CB8
:1036E000C1010E94560A112321F0CE0181960E9449
:1036F000560ACE0101960E94560A6AE971E0CE018F
:1037000001960E944C0DCE0101960E94AD0BBC01AA
:10371000990F880B990B0E94BF1F2091C402309112
:10372000C5024091C6025091C7020E94B8211816E6
:10373000FCF067EA71E0CE0181960E944C0DCE014B
:1037400081960E94AD0BBC01990F880B990B0E94CA
:10375000BF1F2091C4023091C5024091C602509112
:10376000C7020E94B81FE12C87FF15C011E001C0FD
:1037700010E06EE971E0C1010E944C0DC1010E9490
:10378000AD0BEE24E394892B09F4E12CC1010E94D6
:10379000560A112321F0CE0181960E94560ACE01CD
:1037A00001960E94560A66ED71E0CE0101960E94D4
:1037B0004C0DCE0101960E94AD0BBC01990F880BF8
:1037C000990B0E94BF1F2091C0023091C10240910D
:1037D000C2025091C3020E94B8211816FCF063EE99
:1037E00071E0CE0181960E944C0DCE0181960E941F
:1037F000AD0BBC01990F880B990B0E94BF1F209144
:10380000C0023091C1024091C2025091C3020E9495
:10381000B81FF12C87FF15C011E001C010E06DEC5E
:1038200071E0C1010E944C0DC1010E94AD0BFF244B
:10383000F394892B09F4F12CC1010E94560A11233B
:1038400021F0CE0181960E94560ACE0101960E9477
:10385000560A69EB71E0CE0101960E944C0DCE0133
:1038600001960E94AD0BBC01990F880B990B0E9429
:10387000BF1F2091C4023091C5024091C6025091F1
:10388000C7020E94B821181604F163EC71E0CE0162
:1038900081960E944C0DCE0181960E94AD0BBC0119
:1038A000990F880B990B0E94BF1F2091C402309181
:1038B000C5024091C6025091C7020E94B81F10E095
:1038C00087FF15C0CC24C39401C0C12C64EB71E008
:1038D000C1010E944C0DC1010E94AD0B11E0892B6A
:1038E00009F410E0C1010E94560ACC2021F0CE015B
:1038F00081960E94560ACE0101960E94560AD11066
:1039000065C0E11063C0F11061C011115FC081E0BA
:10391000082710E08AE094E00E94F50790913D04AA
:10392000992309F456C0882309F453C001151105E1
:1039300051F40E9449036093BC027093BD028093CE
:10394000BE029093BF020E944903C090BC02D09077
:10395000BD02E090BE02F090BF024B015C018C18EA
:103960009D08AE08BF086CE072E0CE0101960E948F
:103970004C0DCE0101960E94AD0B7C01CE0101964B
:103980000E94560AE8EEF3E0EE9EC001EF9E900D15
:10399000FE9E900D1124092E000CAA0BBB0B88155E
:1039A0009905AA05BB05C0F08091CE029091CF0287
:1039B000009709F054C060E671E0CE0101960E94C4
:1039C0004C0DCE0101960E94930C36C002E010E02F
:1039D000A1CF03E010E0B7CF02301105A9F003300A
:1039E000110579F167E571E00130110561F1E0E061
:1039F000F0E0EF2B09F4CFC80E94AA01882309F454
:103A0000C6C80E940000C3C860E671E0CE010196FE
:103A10000E944C0D6CE571E0CE0181960E944C0D28
:103A200043E0BE016F5F7F4FCE0181960E94B00CD4
:103A3000CE0181960E94560ACE0101960E94560A36
:103A4000D6CF60E671E0CE0101960E944C0D6CE588
:103A500071E0CE0181960E944C0D41E0E2CF67E516
:103A600071E08130910509F4A8CF029709F0BFCF2A
:103A70006DE671E0A2CF66E671E0CE0101960E948C
:103A80004C0DCE0101960E94930CCE0101960E942E
:103A9000560AC090CA02D090CB02E090CC02F090BF
:103AA000CD020E9449036C197D098E099F09643A71
:103AB00077478B41910520F090E080E00E946B0EEB
:103AC0006EE471E0CE01C5960E944C0D6EE471E08B
:103AD000CE018F960E944C0D8AE493E00E949E01D5
:103AE000181619060CF04FC10E9449036093CA02D0
:103AF0007093CB028093CC029093CD026EE471E080
:103B0000CE0101960E944C0D0E94550397FD1BC0EB
:103B100089A31AA20D811E810F5F1F4FB801CE012C
:103B200001960E94250B882379F329813A818D81A2
:103B30009E81BE016F5D7F4F820F931F0E94B4254F
:103B40001E830D83E1CFBE016F5F7F4FCE01C5960F
:103B50000E945E0ACE0101960E94560ABE016B5C6D
:103B60007F4FCE0101960E94930B50E040E0BE01D2
:103B70006F5F7F4FCE0181960E94D80DBE016F5DB1
:103B80007F4FCE018F960E945E0ACE0181960E94E1
:103B9000560ACE0101960E94560ABE016B5C7F4F09
:103BA000CE0101960E94930B41E050E0BE016F5F91
:103BB0007F4FCE0181960E94D80D89A19AA1412CF8
:103BC000512C3201009719F00E94631F2B01CE0186
:103BD00081960E94560ACE0101960E94560ACFA4F1
:103BE000D8A8C114D10431F00BA91CA97601011584
:103BF0001105B1F40FA518A90115110509F446C066
:103C0000D8018D918D01882309F440C0082E000C45
:103C1000990B0E949325F80131978083F1CF7501AC
:103C200057012FEFA21AB20AD7018C91082E000C6F
:103C3000990B0E94AF1F892B91F7015011090C0DB0
:103C40001D1DF8018081082E000C990B0E94AF1FEA
:103C5000892B31F00E151F0518F001501109F1CF15
:103C6000A8014F5F5F4F4E195F095CAB4BABCE14A1
:103C7000DF0420F4B701C6010E949B25EFA5F8A937
:103C80008BA99CA9E80FF91F1082B4CF6AE172E0FA
:103C9000CE018F960E94990A182F6FE172E0CE0133
:103CA0008F960E94990A11115DC081115DC06FE469
:103CB00071E0CE018F960E94990A81115AC0BE010F
:103CC000615D7F4FCE0101960E94930B61E070E031
:103CD000CE0101960E94DB0A8C01CE0101960E9462
:103CE000560ABDE0B09FB001B19F700D11248B0149
:103CF000025A1B4FF801808191819A838983605A0F
:103D00007B4FCE0103960E94930BD80118968D919C
:103D10009C9119979A8789871A968D919C911B97E8
:103D20009C878B871C968C918D87BE01615D7F4F30
:103D3000CE0181960E94930B62E070E0CE018196E5
:103D40000E94DB0A8C01CE0181960E94560A012B4B
:103D500009F589E491E00E94220ACE0103960E94AF
:103D6000560A11C0882329F00E947D090E948B0DFC
:103D70000AC06FE471E0CE018F960E94990A8823F1
:103D8000A9F30E945D0DCE018F960E94560ACE01C6
:103D9000C59654CE29853A85421653062CF02B85BC
:103DA0003C85241535058CF48DE291E00E942D02AE
:103DB00089859A850E94100A87E291E00E942D026F
:103DC0008B859C850E942E0AC8CFBE01615D7F4F06
:103DD000C1010E94930BB101CE0181960E94930B09
:103DE00070E060E0CE0181960E94DB0A8C01CE017A
:103DF00081960E94560AB101CE0181960E94930BD2
:103E000061E070E0CE0181960E94DB0A7C01CE0168
:103E100081960E94560ABDE0BE9DF001BF9DF00D47
:103E20001124E25AFB4F448550E0B201C8010E94C0
:103E30003909C1010E94560A88E191E00E942D02D1
:103E4000CE018F960E94640184E191E00E942D02D0
:103E5000C201B8CFCF93DF9384E094E00E94560A6A
:103E60008EE391E09093400480933F048091FB03A4
:103E70009091FC038F53944071F4E0915204F091BF
:103E800053049081809154048095892380831092FB
:103E9000FC031092FB03CEE2D5E02D97CE010296F3
:103EA0000E94560A84E0CE35D807B9F7CDE6D5E0B2
:103EB0002997CE010E94560A25E0CE32D207C1F7DB
:103EC000DF91CF9108951F93FC0199278827BC01AA
:103ED000E89411911032E9F3193010F01E30C8F354
:103EE0001B3251F01D3249F4689406C00E949A1F9B
:103EF000610F711D811D911D119110531A30B0F386
:103F00003EF490958095709561957F4F8F4F9F4FB0
:103F10001F910895FB01DC0105900D920020E1F74F
:103F20000895FC0105900020E9F7809590958E0F8B
:103F30009F1F0895592F482F372F262F660F771F61
:103F4000881F991F660F771F881F991F620F731FA5
:103F5000841F951F660F771F881F991F0895911161
:103F60000C948B20803219F089508550C8F7089541
:103F70000E94FA1F08F481E00895E89409C097FBB5
:103F80003EF490958095709561957F4F8F4F9F4F30
:103F90009923A9F0F92F96E9BB279395F695879574
:103FA00077956795B795F111F8CFFAF4BB0F11F437
:103FB00060FF1BC06F5F7F4F8F4F9F4F16C08823DE
:103FC00011F096E911C0772321F09EE8872F762F14
:103FD00005C0662371F096E8862F70E060E02AF055
:103FE0009A95660F771F881FDAF7880F9695879541
:103FF00097F90895990F0008550FAA0BE0E8FEEF16
:1040000016161706E807F907C0F012161306E4079C
:10401000F50798F0621B730B840B950B39F40A2695
:1040200061F0232B242B252B21F408950A2609F473
:10403000A140A6958FEF811D811D08950E9431201A
:104040000C94A5200E94972038F00E949E2020F01A
:10405000952311F00C948E200C94942011240C9430
:10406000D9200E94B62070F3959FC1F3950F50E0C0
:10407000551F629FF001729FBB27F00DB11D639F1A
:10408000AA27F00DB11DAA1F649F6627B00DA11DC0
:10409000661F829F2227B00DA11D621F739FB00D66
:1040A000A11D621F839FA00D611D221F749F3327D6
:1040B000A00D611D231F849F600D211D822F762F6F
:1040C0006A2F11249F5750409AF0F1F088234AF04C
:1040D000EE0FFF1FBB1F661F771F881F91505040B8
:1040E000A9F79E3F510580F00C948E200C94D920A6
:1040F0005F3FE4F3983ED4F3869577956795B7953F
:10410000F795E7959F5FC1F7FE2B880F911D969558
:10411000879597F9089599278827089597F99F67B4
:1041200080E870E060E008959FEF80EC089500243F
:104130000A941616170618060906089500240A940C
:1041400012161306140605060895092E0394000C92
:1041500011F4882352F0BB0F40F4BF2B11F460FF21
:1041600004C06F5F7F4F8F4F9F4F089557FD90584A
:10417000440F551F59F05F3F71F04795880F97FB2B
:10418000991F61F09F3F79F08795089512161306E5
:104190001406551FF2CF4695F1DF08C01616170614
:1041A0001806991FF1CF8695710561050894089549
:1041B000E894BB2766277727CB0197F90895F999EB
:1041C000FECF92BD81BDF89A992780B50895262F1C
:1041D000F999FECF1FBA92BD81BD20BD0FB6F894EC
:1041E000FA9AF99A0FBE019608950E943721A59F69
:1041F000900DB49F900DA49F800D911D11240895E2
:104200002F923F924F925F926F927F928F929F92E6
:10421000AF92BF92CF92DF92EF92FF920F931F93D4
:10422000CF93DF93CDB7DEB7CA1BDB0B0FB6F89485
:10423000DEBF0FBECDBF09942A88398848885F84C5
:104240006E847D848C849B84AA84B984C884DF8036
:10425000EE80FD800C811B81AA81B981CE0FD11D1A
:104260000FB6F894DEBF0FBECDBFED010895A29F3B
:10427000B001B39FC001A39F700D811D1124911D3A
:10428000B29F700D811D1124911D08950E945A2125
:104290000C94A5200E949E2058F00E94972040F088
:1042A00029F45F3F29F00C948E2051110C94D920F1
:1042B0000C9494200E94B62068F39923B1F35523FF
:1042C00091F3951B550BBB27AA2762177307840729
:1042D00038F09F5F5F4F220F331F441FAA1FA9F3BF
:1042E00035D00E2E3AF0E0E832D091505040E695AD
:1042F000001CCAF72BD0FE2F29D0660F771F881F0E
:10430000BB1F261737074807AB07B0E809F0BB0B00
:10431000802DBF01FF2793585F4F3AF09E3F510514
:1043200078F00C948E200C94D9205F3FE4F3983EF3
:10433000D4F3869577956795B795F7959F5FC9F7FD
:10434000880F911D9695879597F90895E1E0660F7E
:10435000771F881FBB1F621773078407BA0720F0F7
:10436000621B730B840BBA0BEE1F88F7E095089560
:104370000E94FA1F08F48FEF0895DB018F939F933B
:104380000E94F520BF91AF91A29F800D911DA39F28
:10439000900DB29F900D1124089597FB072E16F4EF
:1043A000009407D077FD09D00E94762307FC05D042
:1043B0003EF4909581959F4F0895709561957F4F3C
:1043C0000895A1E21A2EAA1BBB1BFD010DC0AA1F56
:1043D000BB1FEE1FFF1FA217B307E407F50720F06E
:1043E000A21BB30BE40BF50B661F771F881F991FE9
:1043F0001A9469F760957095809590959B01AC0132
:10440000BD01CF010895052E97FB1EF400940E9474
:104410001A2257FD07D00E94E12107FC03D04EF479
:104420000C941A2250954095309521953F4F4F4F4F
:104430005F4F089590958095709561957F4F8F4F50
:104440009F4F0895B7FF0C94F5200E94F520821B22
:10445000930B0895DF93CF931F930F939A9DF02DA5
:10446000219FF00D8B9DF00D8A9DE02DF10D039F96
:10447000F00D029FE00DF11D4E9DE00DF11D5E9DC2
:10448000F00D4F9DF00D7F936F93BF92AF925F93AE
:104490004F93D5010E9437218B01AC01D7010E94B7
:1044A0003721EB01E80FF91FD6010E9479222F91E5
:1044B0003F91D6010E943721C60FD71FE81FF91F71
:1044C000AF91BF910E9479222F913F910E94372195
:1044D000C60FD71FE81FF91FD6010E943721E60F2C
:1044E000F71F9801BE01CF010F911F91CF91DF916E
:1044F00008950E943721460F571FC81FD91F08F47F
:1045000031960895689401C0E894F92FF12B12F0C8
:104510000C94B622A0E0B0E0E0E9F2E20C940621AF
:10452000092E059422F40E941223112392F4F0E83C
:104530000F26FFEFE094F09400951095B094C0948E
:10454000D094A194BF0ACF0ADF0AEF0AFF0A0F0B2B
:104550001F0B0E94C12207FC0E941223CDB7DEB7B9
:10456000ECE00C942221689401C0E8948F929F9211
:10457000CF93DF930E94C122DF91CF919F908F90C4
:10458000089588249924F401E401B0E49F93AA27B4
:104590009A158B049C04ED05FE05CF05D007A107F5
:1045A00098F4AD2FDC2FCF2FFE2FE92D982C892EDC
:1045B000982F872F762F652F542F432F322F2227A6
:1045C000B85031F7BF9127C01B2EBF91BB27220FD8
:1045D000331F441F551F661F771F881F991F881C94
:1045E000991CEE1FFF1FCC1FDD1FAA1FBB1F8A14C3
:1045F0009B04EC05FD05CE05DF05A007B10748F0DB
:104600008A189B08EC09FD09CE09DF09A00BB10B44
:1046100021601A94E1F62EF49401AF01BE01CD01A0
:10462000000C089560957095809590953095409513
:10463000509521953F4F4F4F5F4F6F4F7F4F8F4F9B
:104640009F4F0895002E083090F0982F872F762FD7
:10465000652F542F432F322F22270850F4CF220FDB
:10466000331F441F551F661F771F881F991F0A9508
:10467000B2F7002D089597FD1094002E083098F0A1
:104680000850232F342F452F562F672F782F892F2F
:10469000912DF4CF159497958795779567955795B4
:1046A0004795379527950A95AAF71124002D089567
:1046B0002A0D3B1D4C1D5D1D6E1D7F1D801F911F12
:1046C00008952A193B094C095D096E097F09800B81
:1046D000910B08950024A7FD00942A17300540058A
:1046E000500560057005800590050895AA1BBB1B49
:1046F00051E107C0AA1FBB1FA617B70710F0A61BE2
:10470000B70B881F991F5A95A9F780959095BC0102
:10471000CD010895EE0FFF1F0590F491E02D09944F
:104720000F931F93CF93DF93869F8001879F100D78
:10473000969F100D1124C8010E94AC23EC01009734
:1047400029F0A80170E060E00E94A425CE01DF916D
:10475000CF911F910F9108950F931F93CF93DF93E4
:104760008230910510F482E090E0E0916F05F091C5
:10477000700530E020E0B0E0A0E0309799F421151A
:10478000310509F44AC0281B390B24303105D8F50E
:104790008A819B816115710589F1FB019383828375
:1047A000FE0111C0408151810281138148175907D0
:1047B000E0F04817590799F4109761F012960C939E
:1047C000129713961C933296CF01DF91CF911F91D0
:1047D0000F91089500936F0510937005F4CF211584
:1047E000310551F04217530738F0A901DB019A0156
:1047F000BD01DF01F801C1CFEF01F9CF9093700542
:1048000080936F05CDCFFE01E20FF31F819391934B
:104810002250310939832883D7CF20916D053091FB
:104820006E05232B41F4209108013091090130934A
:104830006E0520936D052091060130910701211529
:10484000310541F42DB73EB740910A0150910B015B
:10485000241B350BE0916D05F0916E05E217F3070F
:10486000A0F42E1B3F0B2817390778F0AC014E5FE0
:104870005F4F2417350748F04E0F5F1F50936E05AA
:1048800040936D05819391939FCFF0E0E0E09CCF42
:10489000CF93DF930097E9F0FC01329713821282E5
:1048A000A0916F05B0917005ED0130E020E0109708
:1048B000A1F420813181820F931F20916D053091E9
:1048C0006E052817390709F061C0F0936E05E09373
:1048D0006D05DF91CF910895EA01CE17DF07E8F566
:1048E0004A815B819E0141155105B1F7E901FB83C6
:1048F000EA8349915991C40FD51FEC17FD0761F464
:10490000808191810296840F951FE90199838883A4
:10491000828193819B838A83F0E0E0E012968D91FF
:104920009C9113970097B9F52D913C911197CD016A
:104930000296820F931F20916D0530916E05281706
:10494000390739F6309751F51092700510926F05BE
:10495000B0936E05A0936D05BCCFD383C283408115
:104960005181840F951FC817D90761F44E5F5F4FBF
:1049700088819981480F591F518340838A819B8187
:10498000938382832115310509F0B0CFF093700530
:10499000E0936F059ECFFD01DC01C0CF1382128230
:1049A000D7CFB0E0A0E0E7EDF4E20C9402218C0157
:1049B000009751F4CB010E94AC238C01C801CDB704
:1049C000DEB7E0E10C941E21FC01E60FF71F9C010D
:1049D00022503109E217F30708F49DC0D901CD91A7
:1049E000DC911197C617D70798F0C530D10530F381
:1049F000CE0104978617970708F3C61BD70B22979B
:104A0000C193D1936D937C93CF010E944824D6CF5C
:104A10005B01AC1ABD0A4C018C0E9D1EA0916F0566
:104A2000B0917005512C412CF12CE12C109731F5EF
:104A300080916D0590916E058815990509F05CC00F
:104A40004616570608F058C080910601909107015C
:104A5000009741F48DB79EB740910A0150910B0128
:104A6000841B950BE817F90708F055C0F0936E0505
:104A7000E0936D05F90171836083A0CF8D919C91C6
:104A8000119712966C90129713967C901397A81515
:104A9000B90559F56C0142E0C40ED11CCA14DB04FF
:104AA00020F1AC014A195B09DA011296159780F0E2
:104AB0006282738251834083D9016D937C93E114A8
:104AC000F10471F0D7011396FC93EE93129776CF11
:104AD00022968C0F9D1FF90191838083F301EFCF04
:104AE000F0937005E0936F0569CF4816590608F4F6
:104AF0002C017D01D3019ACFCB010E94AC237C0114
:104B0000009749F0AE01B8010E949B25C8010E94A0
:104B10004824870153CF10E000E050CF81E090E0BF
:104B2000F8940C94BB259111089581568A5108F48C
:104B3000805285580895FB01DC0102C001900D925E
:104B400041505040D8F70895DC0101C06D934150A9
:104B50005040E0F70895FB01DC018D910190801930
:104B60000110D9F3990B0895FB01DC0101900D921E
:104B70000020E1F7089511E0C2E0D1E004C0FE0199
:104B80000E948A232196C330D107C9F7F894FFCF3A
:104B900097039703010100007105800000000000E9
:104BA000E00137016D0148029E017C019001000087
:104BB00000000D06E005E906BD052F01CD05BE0587
:104BC00000000000F5079F07F808000000005406E9
:104BD0003701E906BD05B006C8063C060D0A0056B9
:104BE000455253494F4E00424C55450052454400F2
:104BF000475245454E0059454C4C4F57004F524186
:104C00004E4745005748495445004F4646004C55CD
:104C10004D494E4F004C554D494E5F4C4F57004C3F
:104C2000554D494E5F48494748004D494E5F5445F0
:104C30004D505F414952004D41585F54454D505FC2
:104C4000414952004859475200485947525F4D491F
:104C50004E5400485947525F4D41585400505245F8
:104C600053535552450050524553535552455F4D8D
:104C7000494E0050524553535552455F4D415800DF
:104C80004C4F475F494E54455256414C4C004649A3
:104C90004C455F4D41585F53495A450054494D4575
:104CA0004F55540030393330410053484F5700526C
:064CB000455345540000CD
:107E0000112484B714BE81FFF0D085E080938100F7
:107E100082E08093C00088E18093C10086E0809377
:107E2000C20080E18093C4008EE0C9D0259A86E02C
:107E300020E33CEF91E0309385002093840096BBD3
:107E4000B09BFECF1D9AA8958150A9F7CC24DD24C4
:107E500088248394B5E0AB2EA1E19A2EF3E0BF2EE7
:107E6000A2D0813461F49FD0082FAFD0023811F036
:107E7000013811F484E001C083E08DD089C08234E0
:107E800011F484E103C0853419F485E0A6D080C0E4
:107E9000853579F488D0E82EFF2485D0082F10E0AE
:107EA000102F00270E291F29000F111F8ED06801E7
:107EB0006FC0863521F484E090D080E0DECF843638
:107EC00009F040C070D06FD0082F6DD080E0C81688
:107ED00080E7D80618F4F601B7BEE895C0E0D1E017
:107EE00062D089930C17E1F7F0E0CF16F0E7DF06D8
:107EF00018F0F601B7BEE89568D007B600FCFDCFD4
:107F0000A601A0E0B1E02C9130E011968C91119780
:107F100090E0982F8827822B932B1296FA010C0160
:107F200087BEE89511244E5F5F4FF1E0A038BF0790
:107F300051F7F601A7BEE89507B600FCFDCF97BE46
:107F4000E89526C08437B1F42ED02DD0F82E2BD052
:107F50003CD0F601EF2C8F010F5F1F4F84911BD097
:107F6000EA94F801C1F70894C11CD11CFA94CF0C13
:107F7000D11C0EC0853739F428D08EE10CD085E9AC
:107F80000AD08FE07ACF813511F488E018D01DD067
:107F900080E101D065CF982F8091C00085FFFCCF94
:107FA0009093C60008958091C00087FFFCCF809118
:107FB000C00084FD01C0A8958091C6000895E0E648
:107FC000F0E098E1908380830895EDDF803219F02E
:107FD00088E0F5DFFFCF84E1DECF1F93182FE3DFCA
:107FE0001150E9F7F2DF1F91089580E0E8DFEE27F6
:047FF000FF270994CA
:027FFE00040479
:00000001FF
