:100000000C94C7030C94D52D0C94AA2D0C947F2D21
:100010000C94542D0C94292D0C94FE2C0C94D32C60
:100020000C94A82C0C94242F0C94242F0C94242F83
:100030000C94F8030C94F8030C94F8030C94F80354
:100040000C94F8030C94F8030C94F8030C94F80344
:100050000C94F8030C94F8030C94F8030C945E2CA5
:100060000C94F8030C94282C0C94FE2B0C94F8039D
:100070000C94F8030C94F8030C94F8030C94F80314
:100080000C94F8030C94F8030C94F8030C94F80304
:100090000C94F8030C94F8030C94F8030C94002EC1
:1000A0000C94F8030C94F8030C94F8030C94F803E4
:1000B0000C94F8030C94F8030C94F8030C94F803D4
:1000C0000C94F8030C94F8030C94F8030C94F803C4
:1000D0000C94F8030C94F8030C94F8030C94F803B4
:1000E0000C94F8030C94603D0C94F4160C94773E39
:1000F0000C949E060C94EC0A0C94A2250C94BC065D
:100100000C94A8060C94B2060C94010C0C94AE0648
:100110000C94FB030C9422460C9493060C94C84C4C
:100120000C941A060C94CE060C94F3140C94F10B58
:100130000C948F060C9489060C9458050C94FD14AD
:100140000C946C050C940D050C94CA060C94191CA7
:100150000C94053F0C94A2190C94C4060C94103F07
:100160000C94DF3E0C94FE070C94243F0C94170C67
:100170000C94780A0C94AF3E0C944E0A0C941C0517
:100180000C9449050C94D31B0C941F190C94C006B5
:100190000C94EA3E0C94403F0C94FA030C94B20584
:1001A0000C944F0A0C942B3F0C94D40A0C945E0AC6
:1001B0000C94C9060C9475150C940E080C94301907
:1001C0000C9461250C94600B0C947A050C94D10B63
:1001D0000C9497060C944D190C9459300C94943E41
:1001E0000C940C080C94353F0C94A4060C94710AE2
:1001F0000C94A50A0C94B6060C94C43E0C94480BBF
:100200000C949B060C94A93E00407A10F35A00A06F
:10021000724E18090010A5D4E80000E876481700CF
:1002200000E40B54020000CA9A3B000000E1F5050F
:10023000000080969800000040420F000000A08659
:1002400001000000102700000000E803000000008B
:100250006400000000000A0000000000010000002F
:1002600000002C76D888DC674F0823DFC1DFAE5949
:10027000E1B1B796E5E3E453C63AE651997696E8DC
:10028000E6C28426EB898C9B62ED407C6FFCEFBC60
:100290009C9F40F2BAA56FA5F490055A2AF75C938B
:1002A0006B6CF9676DC11BFCE0E40D47FEF520E6C1
:1002B000B500D0ED902E0300943577050080841EA4
:1002C000080000204E0A000000C80C333333330FFF
:1002D000986E12831141EF8D2114893BE65516CF9C
:1002E000FEE6DB18D1844B381BF77C1D901DA4BBA8
:1002F000E424203284725E228100C9F124ECA1E55D
:100300003D27546865206E6577206D6F64652069B0
:10031000732000636F6E66696775726174696F6ED2
:10032000006D61696E74656E616E63650065636F13
:10033000006E6F726D616C00004E41005361746518
:100340006C69746573203A20002020004E41004102
:100350006C74697475646520286D29203A2000202A
:1003600020004E41004C6F6E676974756465203AD9
:1003700020002020004E41004C6174697475646552
:10038000203A20002020007C002020004E41005D0B
:100390002020003A003A0020002F002F005B004C84
:1003A0004F475F494E54455256414C007C3C3E5E9F
:1003B0002B3D3F2F5B5D3B2C2A225C0000000A0B8B
:1003C00002090C0D0E0807030401000000000000E4
:1003D000000000000000000000000000000000001D
:1003E00000000000000000001211100000000000DA
:1003F00000000000000000000000000000000000FD
:10040000000053442043617264206C6F6164696E24
:1004100067204661696C65640053442043617264DF
:10042000206C6F6164696E67204661696C65640069
:100430004859475200485947525F4D415854004867
:100440005947525F4D494E540050524553535552EF
:10045000450050524553535552455F4D4158005049
:10046000524553535552455F4D494E0054454D50EA
:100470005F414952004D41585F54454D505F4149DD
:1004800052004D494E5F54454D505F414952004C1A
:10049000554D494E4F004C554D494E5F48494748D0
:1004A000004C554D494E5F4C4F57004F52414E47FF
:1004B0004500424C554500475245454E0052454483
:1004C000005748495445005245440057484954454F
:1004D000005245440059454C4C4F5700524544008A
:1004E000475245454E0052454400475245454E004F
:1004F00052454400424C55450054494D454F5554D2
:10050000004C4F475F494E54455256414C001F1C0A
:100510001F1E1F1E1F1F1E1F1E203D20004E657721
:100520002076616C756520666F72200020616E64B4
:100530002000506C616365207365742061206E75C6
:100540006D626572206265747765656E200054681F
:10055000697320706172616D6574657220646F6586
:10056000736E27742065786973742021003A003A0D
:10057000002000290053617475726461790046722D
:1005800069646179005468757273646179005765B4
:10059000646E657364617900547565736461790094
:1005A0004D6F6E6461790053756E64617900202827
:1005B000002F002F00546865206E657720646174F9
:1005C00065206973203A200054686520636F727259
:1005D00065637420666F726D6174206973203A20C0
:1005E0004D4F4E54487B312D31327D2C4441597B47
:1005F000312D33317D2C594541527B323030302DF5
:10060000323039397D0054686520636F72726563DA
:100610007420666F726D6174206973203A20484FB0
:1006200055527B302D32337D3A4D494E5554457BE2
:10063000302D35397D3A5345434F4E447B302D356F
:10064000397D0059454C4C4F5700000021002400D3
:1006500027002A002D0030003300010100000401B2
:1006600007010A012D2D2D2D2D2D2D2D2D2D2D2D5B
:100670002D2D2D2D2D2D00203A20002D2D2D2D2D11
:100680002D2D2D2D2D2D2D2D2D2D2D2D2D00546865
:1006900065206261746368206E756D6265722069A1
:1006A00073203A200056455253494F4E0054686516
:1006B0002076657273696F6E206F662070726F6747
:1006C00072616D206973203A200000002000230031
:1006D000260029002C002F00320000010000030139
:1006E0000601090100002200250028002B002E0031
:1006F0003100340002010000050108010B0105056D
:100700000505070508080808020202020A0A080887
:1007100004040404010101010101010103030303B5
:1007200003030303040707070C0C0C0C0C0C0C0C44
:100730000202020206060606060606060B0B0B0B55
:100740000B0B0B0B0102102020080810204010207A
:100750004080020102010804020101020408102085
:100760004080804020100804020180040201804083
:1007700020100804020108040201010204081020EC
:100780004080010204081020408059302246112484
:100790001FBECFEFD1E2DEBFCDBF00E00CBF2AE02D
:1007A000AEE0B4E001C01D92AC3EB207E1F714E048
:1007B000A0E0B2E0EAEDF0EA00E00BBF02C0079073
:1007C0000D92AE30B107D9F713E0C6ECD3E000E0EC
:1007D00006C021970109802FFE010E94524CC53CA2
:1007E000D10780E00807A9F70E94A1340C945B5060
:1007F0000C940000089508950F931F93CF93DF93F7
:10080000C0919109E2E9F9E0CD3211F0E1E9F9E0B6
:100810008F0120E030E0A901D801DD918D0180ED4C
:100820008D0F8A3090F4AAE0B0E00E94CA4A2D2FC2
:10083000DD0F330B440B550B260F371F481F591F75
:100840002053310941095109E7CFA4E6B0E00E94E5
:10085000CA4AAB01BC01DF01819190ED980F9A303B
:10086000D0F38E3259F511968C91119790ED980F27
:100870009A3020F5082E000C990BC0972AE0289F8B
:100880008001299F100D1124012E000C220B330B27
:10089000400F511F621F731F12968C9190ED980F9D
:1008A0009A3060F4082E000C990BC097092E000CAA
:1008B000AA0BBB0B480F591F6A1F7B1FCD3239F49F
:1008C00070956095509541955F4F6F4F7F4FCB016D
:1008D000BA01DF91CF911F910F9108954F925F92CE
:1008E0006F927F928F929F92AF92BF92CF92DF9240
:1008F000EF92FF921F93CF93DF93C1E9D9E0FE01FE
:10090000C12CD12C7601119180ED810F8A30A8F491
:10091000AAE0B0E0A70196010E94CA4AC12E110FB9
:10092000DD08EE08FF08C60ED71EE81EF91E80E39C
:10093000C81AD108E108F108E6CFC701B60124E6DC
:1009400030E040E050E00E94114C9B01AC0160EAB5
:1009500076E881E090E00E94CD4B4B015C019E0166
:10096000899190ED980F9A30D0F38E3221F5E901FC
:10097000219680E1482E87E2582E612C712CA99196
:1009800080ED8A0F8A30B8F40A2E000CBB0BD0978A
:10099000A30192010E945A4C860E971EA81EB91EF2
:1009A000C301B2012AE030E040E050E00E94114C67
:1009B00029013A01E4CFC701B60124E630E040E066
:1009C00050E00E94114C60E472E48FE090E00E94DD
:1009D000CD4B6B017C01C501B4016D5F7F4F8F4F23
:1009E0009F4F26E030E040E050E00E94114CC701EC
:1009F000B601620F731F841F951FDF91CF911F9166
:100A0000FF90EF90DF90CF90BF90AF909F908F902E
:100A10007F906F905F904F9008950895DB0114963A
:100A20004D915C9115976D917C91DC01ED91FC915C
:100A30000280F381E02D1994AF92BF92CF92DF92A2
:100A4000EF92FF920F931F93CF93DF936C017B0183
:100A50008B01040F151FEB015E01AE18BF08C01714
:100A6000D10759F06991D601ED91FC910190F08187
:100A7000E02DC6011995892B79F7C501DF91CF913A
:100A80001F910F91FF90EF90DF90CF90BF90AF90AC
:100A90000895FC01538D448D252F30E0842F90E084
:100AA000821B930B541710F0CF9608950197089569
:100AB000FC01918D828D981761F0A28DAE0FBF2F32
:100AC000B11D5D968C91928D9F5F9F73928F90E088
:100AD00008958FEF9FEF0895FC01918D828D9817F7
:100AE00031F0828DE80FF11D858D90E008958FEF34
:100AF0009FEF0895FC01918D228D892F90E0805CFD
:100B00009F4F821B91098F73992708958EE397E079
:100B10000E947A0521E0892B09F420E0822F0895B4
:100B2000FC01A48DA80FB92FB11DA35ABF4F2C9162
:100B3000848D90E001968F739927848FA689B78959
:100B40002C93A089B1898C91837080648C93938D50
:100B5000848D981306C00288F389E02D80818F7DF3
:100B600080830895EF92FF920F931F93CF93DF93AB
:100B7000EC0181E0888F9B8D8C8D98131AC0E889D9
:100B8000F989808185FF15C09FB7F894EE89FF89A8
:100B90006083E889F98980818370806480839FBF46
:100BA00081E090E0DF91CF911F910F91FF90EF9046
:100BB0000895F62E0B8D10E00F5F1F4F0F73112756
:100BC000E02E8C8D8E110CC00FB607FCFACFE88991
:100BD000F989808185FFF5CFCE010E949005F1CF84
:100BE000EB8DEC0FFD2FF11DE35AFF4FF0829FB705
:100BF000F8940B8FEA89FB8980818062CFCF0F93B5
:100C00001F93CF93DF938C01D0E0C0E0F801EC0F8D
:100C1000FD1F6491662341F08EE397E00E94B205C8
:100C2000892B11F02196F2CFCE01DF91CF911F9148
:100C30000F910895CF93DF93EC01888D8823B9F04D
:100C4000AA89BB89E889F9898C9185FD03C08081D7
:100C500086FD0DC00FB607FCF7CF8C9185FFF2CF54
:100C6000808185FFEDCFCE010E949005E9CFDF9115
:100C7000CF91089580E090E0892B29F00E948605AD
:100C800081110E94000080E090E0892B49F080E013
:100C900090E0892B29F00E94000081110E94000041
:100CA00080E090E0892B49F080E090E0892B29F0EA
:100CB0000E94000081110E94000080E090E0892BDA
:100CC00049F080E090E0892B29F00E94000081111A
:100CD0000C94000008958150823108F05AC0E82F2A
:100CE000F0E08827E958F94F8F4F0C94524C970643
:100CF0009B0689068F069306C9069E06A406A806CB
:100D0000AE06B206B606BC06C006C906C406CA06CA
:100D1000CE06809180008F77809380000895809127
:100D200080008F7DF9CF80918000877FF5CF84B5DB
:100D30008F7784BD089584B58F7DFBCF8091B000FF
:100D40008F778093B00008958091B0008F7DF9CFA8
:100D5000809190008F77809390000895809190000B
:100D60008F7DF9CF80919000877FF5CF8091A00093
:100D70008F778093A00008958091A0008F7DF9CF98
:100D80008091A000877FF5CF809120018F7780939D
:100D900020010895809120018F7DF9CF809120015D
:100DA000877FF5CFCF93DF93282F30E0F901E4540C
:100DB000FC4F8491F901EC5BF84FD491F901E250BA
:100DC000F94FC491CC23A1F081110E946B06EC2F46
:100DD000F0E0EE0FFF1FE653F94FA591B491EC91AF
:100DE000ED2381E090E009F480E0DF91CF91089558
:100DF00080E090E0FACF1F93CF93DF93282F30E06D
:100E0000F901E454FC4F8491F901EC5BF84FD49163
:100E1000F901E250F94FC491CC23A9F0162F8111AA
:100E20000E946B06EC2FF0E0EE0FFF1FEC51F94F24
:100E3000A591B4918FB7F894EC91111108C0D09599
:100E4000DE23DC938FBFDF91CF911F910895DE2BBE
:100E5000F8CFCF93DF9390E0FC01EC5BF84F249147
:100E60008250994FFC0184918823C9F090E0880F4B
:100E7000991FFC01E65BF94FA591B491FC01EC517F
:100E8000F94FC591D49161110DC09FB7F8948C9121
:100E9000209582238C938881282328839FBFDF910C
:100EA000CF910895623051F49FB7F8943C91822F0E
:100EB000809583238C93E8812E2BEFCF8FB7F89406
:100EC000EC912E2B2C938FBFEACF3FB7F8948091F3
:100ED000A1049091A204A091A304B091A40426B50A
:100EE000A89B05C02F3F19F00196A11DB11D3FBF62
:100EF000BA2FA92F982F8827BC01CD01620F711D31
:100F0000811D911D42E0660F771F881F991F4A952A
:100F1000D1F708958F929F92AF92BF92CF92DF92B6
:100F2000EF92FF920E9465074B015C0188E8C82E92
:100F300083E1D82EE12CF12C0E946507681979090C
:100F40008A099B09683E734081059105A8F321E059
:100F5000C21AD108E108F10888EE880E83E0981ED5
:100F6000A11CB11CC114D104E104F10429F7FF90C4
:100F7000EF90DF90CF90BF90AF909F908F900895AB
:100F80002FB7F89460919D0470919E0480919F0406
:100F90009091A0042FBF08950F931F930E94C00744
:100FA00060934607709347078093480790934907DB
:100FB0008EE397E00E94580597FF1DC00E94C0076E
:100FC0000091460710914707209148073091490743
:100FD000601B710B820B930B00914207109143072A
:100FE00020914407309145076017710782079307E6
:100FF000F8F28FEF9FEF1F910F9108950E94C007A5
:101000006093F4087093F5088093F6089093F708BE
:1010100081E08093A80408950C94FE070895209120
:101020007904260F3327331F21323105ECF4209148
:101030003807FC0190E080E0243069F082E00895F8
:10104000A09179042191AC01475A5B4FA40FB52FB1
:10105000B11D2C930196861798F380917904680F3F
:101060006093790480E0089581E008951092380734
:1010700081E0809317071092120761E084E10E94DB
:10108000FB0661E085E10E94FB06E9EBF0E0808170
:101090008E7F808380818D7F808388E48093B800F9
:1010A00085E48093BC000895CF93DF9391E0909303
:1010B00058048823B9F0C091B800D091BA0080914B
:1010C000BC008A7B8093BC0060E084E10E94FB0648
:1010D00060E085E10E94FB060E943608D093BA00CA
:1010E000C093B800DF91CF910895CF92DF92EF9235
:1010F000FF920F931F93CF93DF93D82FC62F6132A8
:1011000008F098C00E9465076B017C018091380748
:1011100081116BC081E080933807809317079FEFA0
:1011200090931607109215079C0F909314078093C5
:10113000130780911307DD0FD82BD09313078091ED
:101140001207813009F078C0109212070E946507DB
:101150006B017C01809113078093BB0080913A075B
:1011600090913B07A0913C07B0913D07892B8A2BBA
:101170008B2BA1F00E94650700913A0710913B0765
:1011800020913C0730913D076C197D098E099F091C
:10119000061717072807390708F448C08091BC00D4
:1011A00083FDD8CF85EC8093BC000E9465076B015E
:1011B0007C0180913807813009F440C08091150787
:1011C0008C1710F4C0911507E2EFF6E0A8E1B7E044
:1011D00080E08C1355C08C2FDF91CF911F910F9120
:1011E000FF90EF90DF90CF90089580913A07909113
:1011F0003B07A0913C07B0913D07892B8A2B8B2B95
:1012000009F484CF0E94650700913A0710913B07CB
:1012100020913C0730913D076C197D098E099F098B
:10122000061717072807390708F070CF809139078C
:101230000E945408C0E0CFCF85EEB5CF80913A0729
:1012400090913B07A0913C07B0913D07892B8A2BD9
:101250008B2B09F4AECF0E94650700913A071091DD
:101260003B0720913C0730913D076C197D098E09A1
:101270009F09061717072807390708F09ACFD6CF16
:1012800091919D938F5FA5CFCF92DF92EF92FF92C6
:101290000F931F93CF93DF93D091F10681E0D1326A
:1012A00008F09CC0C091F0060E9465076B017C01AC
:1012B0008091380781116CC082E08093380781E00B
:1012C000809317078FEF8093160710921507D0931E
:1012D0001407A0EDB6E0E2EFF6E080E0D8138DC091
:1012E0001092130780911307CC0FC82BC0931307DC
:1012F00080911207813009F084C0109212070E9479
:1013000065076B017C01809113078093BB0080917E
:101310003A0790913B07A0913C07B0913D07892B7C
:101320008A2B8B2BA1F00E94650700913A07109140
:101330003B0720913C0730913D076C197D098E09D0
:101340009F09061717072807390708F442C080913C
:10135000BC0083FDD8CF85EC8093BC000E9465075C
:101360006B017C0180913807823009F44CC0809178
:1013700016078F3F09F469C080911607803209F47F
:1013800066C080911607803309F463C084E026C0EC
:1013900080913A0790913B07A0913C07B0913D079F
:1013A000892B8A2B8B2B09F483CF0E946507009130
:1013B0003A0710913B0720913C0730913D076C198B
:1013C0007D098E099F09061717072807390708F0B6
:1013D0006FCF809139070E94540885E01092CF06A4
:1013E0001092F1061092CE06DF91CF911F910F91CE
:1013F000FF90EF90DF90CF9008959D9191938F5F34
:101400006DCF85EEA9CF80913A0790913B07A091CF
:101410003C07B0913D07892B8A2B8B2B09F4A2CF77
:101420000E94650700913A0710913B0720913C0705
:1014300030913D076C197D098E099F090617170722
:101440002807390708F08ECFC4CF80E0C7CF82E0ED
:10145000C5CF83E0C3CF1092C8041092C704109286
:10146000CF061092F1060E9436088AEF93E090931F
:10147000C6048093C5048BEF93E09093C4048093DB
:10148000C30481E08093CE0688E68093F0060E9434
:10149000440991E0811190E0892F08950895E09129
:1014A000C8048091C704E81730F4F0E0E85EF84F14
:1014B000808190E008958FEF9FEF08959091C80488
:1014C0008091C7042FEF3FEF981748F4E92FF0E021
:1014D000E85EF84F208130E09F5F9093C804C90117
:1014E00008958091C7049091C804891B990B0895B1
:1014F000CF92DF92EF92FF920F931F93CF93DF93E0
:101500007C01CB018A012091CE06222389F0EB01D8
:101510006B01C40ED51ECC15DD0569F06991D701AC
:10152000ED91FC910190F081E02DC7011995F3CF69
:10153000642F0E940F08C801DF91CF911F910F9176
:10154000FF90EF90DF90CF900895CF93DF931F929D
:10155000CDB7DEB769832091CE062223F9F0209122
:10156000F106203258F021E030E0FC013383228381
:1015700090E080E00F90DF91CF9108958091CF06A9
:10158000E82FF0E0E053F94F998190838F5F8093CB
:10159000CF068093F10681E090E0ECCF61E0CE01D0
:1015A00001960E940F08F7CF20913208309133083E
:1015B0002817390771F49091A5048091A604981713
:1015C00041F0E091A504F0E0E85EFB4F808190E0FF
:1015D00008958FEF9FEF0895EF92FF920F931F935F
:1015E000CF93DF93DC015C96ED90FC905D97E11466
:1015F000F10479F481E090E013969C938E93129716
:1016000090E080E0DF91CF911F910F91FF90EF90DC
:1016100008955196ED91FC91529750968C91509768
:10162000982F90950FB75E962C915E97122F12709F
:1016300021FD6095F8942081112319F1282B208336
:10164000E7012197F1F728E0462F50E0308160FF55
:101650001AC0382B3083E7012197F1F7BA0175954D
:101660006795215089F7112381F080818923808338
:101670000FBF5C968D919C910197F1F781E090E00E
:10168000C1CF2923DCCF3923E5CF9081892BEFCF40
:1016900020913208309133082817390771F480916E
:1016A000A6042091A50490E0805C9F4F821B9109C5
:1016B00060E470E00E94FD4B089590E080E00895A2
:1016C000209132083091330828173907B9F49091E6
:1016D000A5048091A604981789F0E091A504F0E094
:1016E000E85EFB4F80812091A50430E02F5F3F4FE3
:1016F0002F7333272093A50490E008958FEF9FEF79
:101700000895FC01DB0112968D919C9113979383B0
:10171000828386E592E09183808314968C9114975E
:10172000848315968C911597858316964D915D91BE
:101730006D917C91199746835783608771871A96BC
:101740004D915D916D917C911D9742875387648780
:1017500075871E964D915D916D917C91519746874D
:101760005787608B718B52968C915297828B5396D0
:101770004D915D916D917C915697438B548B658B08
:10178000768B57964D915D916D917C915A97478BD1
:10179000508F618F728F5B968D919C91948F838F08
:1017A0000895DC015996ED91FC913097B9F0838949
:1017B0009489A589B6894285538564857585841B7E
:1017C000950BA60BB70B811520E89207A105B10573
:1017D00038F08FEF9FE7A0E0B0E0089590E080E060
:1017E0000895DC0159968D919C91009739F0DC01A8
:1017F000ED91FC910480F581E02D199490E080E05A
:101800000895CF93DF931F92CDB7DEB76983DC01D4
:10181000ED91FC910280F381E02D41E050E0BE01AA
:101820006F5F7F4F19950F90DF91CF91089590E0F2
:1018300080E00895EF92FF920F931F93CF93DF9371
:101840008C01D62FC8E08BE4E82EF12CF8018181C1
:1018500061E0D7FF60E00E94FB0660E0F801808154
:101860000E94FB06C7010197F1F761E0F801808152
:101870000E94FB06C7010197F1F7DD0FC15031F758
:10188000DF91CF911F910F91FF90EF9008959F925C
:10189000AF92BF92CF92DF92EF92FF920F931F937E
:1018A000CF93DF93EC01E62ED42EC22E60E00E948F
:1018B0001A0C60E0CE010E941A0C60E0CE010E947A
:1018C0001A0C60E0CE010E941A0C10E083E0B82EE2
:1018D0008A81181708F046C01B9D90011124A901A8
:1018E0004F5F5F4FB9016E5F7F4F1E110FC0EB81DD
:1018F000FC81E20FF31FD082EB81FC81E40FF51F26
:10190000C082EB81FC81E60FF71F00838B819C81F5
:10191000680F791FFB01F080480F591FFA01908072
:10192000820F931FFC01A08060ECF7FE60EEF6FED4
:10193000606197FE686096FE6460A7FE6260A6FE26
:101940006160CE010E941A0C6F2DCE010E941A0C0C
:10195000692DCE010E941A0C6A2DCE010E941A0C2C
:101960001F5FB6CF60E0CE010E941A0C60E0CE018E
:101970000E941A0C60E0CE010E941A0C60E0CE01B9
:10198000DF91CF911F910F91FF90EF90DF90CF905B
:10199000BF90AF909F900C941A0C089561E0FC01E9
:1019A00084810E94FB06809112048111109212041E
:1019B00008958EBD00000DB407FEFDCF8EB50895CD
:1019C0008FEF0C94D90C0F931F93CF93DF93EC01FF
:1019D0000E94C0078B010E94E00C8F3F69F00E94BB
:1019E000C007601B710B6C177D07A8F380E0DF91C7
:1019F000CF911F910F91089581E0F9CF8CBD9DBDCE
:101A00000895CF93DF93EC0180911204811109C0F6
:101A100081E0809312048091E7079091E8070E948B
:101A2000FE0C60E08C81DF91CF910C94FB068F92CD
:101A30009F92AF92BF92FF920F931F93CF93DF932A
:101A4000EC01F62E49015A018E81882389F08F819D
:101A500098859C012F5F3F4F38872F8382309240BB
:101A600018F40E94E00CF3CFCE010E94CE0C1E822F
:101A7000CE010E94010D8CE291E00E94E30C8F2DBB
:101A800080640E94D90C08E110E0D501C401002E49
:101A900004C0B695A795979587950A94D2F70E94AA
:101AA000D90C08501109083F8FEF180771F785E925
:101AB000FF2021F028E087E8F2128FEF0E94D90C76
:101AC00010E00E94E00C8A8787FF04C01F3F11F0DE
:101AD0001F5FF7CFDF91CF911F910F91FF90BF90C4
:101AE000AF909F908F900895AF92BF92CF92DF9268
:101AF000EF92FF920F931F93CF93DF93EC01690155
:101B0000C801820F931F8130924050F58E81882347
:101B100079F088819981AA81BB8184179507A607EE
:101B2000B70731F48F819885C816D90608F042C0EE
:101B3000488359836A837B838B85833039F089E0BE
:101B4000440F551F661F771F8A95D1F79A01AB0185
:101B500061E1CE010E94170D882389F083E08D8317
:101B6000CE010E94CE0C80E0DF91CF911F910F91AA
:101B7000FF90EF90DF90CF90BF90AF9008950E94BC
:101B8000C0075B010E94E00C8A878F3F69F40E94C6
:101B9000C0076A197B096D327140A0F38FE08D8315
:101BA000CE010E94CE0CDCCF8E3F89F418861F82B6
:101BB00081E08E838F8198858C159D0550F40E945D
:101BC000E00C8F819885019698878F83F3CF8DE005
:101BD000E6CF6701E00EF11E0E94E00CF601819352
:101BE0006F01EE15FF05C1F78F819885080F191F4A
:101BF00018870F838985882319F001151240A0F0FA
:101C00008E81882389F08F8198859C012F5F3F4FBB
:101C100038872F838230924018F40E94E00CF3CF73
:101C2000CE010E94CE0C1E8281E09ECFCF92DF9229
:101C3000EF92FF920F93CF93DF93EC01690182E162
:101C4000411551056105710599F08B85833039F097
:101C500089E0440F551F661F771F8A95D1F79A01B7
:101C6000AB0168E1CE010E94170D882319F084E0D2
:101C70008D832DC08EEF0E94D90C76018EEFD81A7D
:101C8000F70181917F010E94D90CEC14FD04C1F78A
:101C90008FEF0E94D90C8FEF0E94D90C0E94E00CAC
:101CA0008A878F71853071F4011116C0CE010E94B0
:101CB000CE0C81E0DF91CF910F91FF90EF90DF90FC
:101CC000CF90089581E18D83CE010E94CE0CCE018C
:101CD0000E94CE0C80E0EECF88E592E00E94E30CFB
:101CE000811102C085E1C4CF20E030E0A9016DE0A0
:101CF000CE010E94170D882311F084E1B9CF0E9414
:101D0000E00C8111FACFD2CF0F934091140450917F
:101D10001504609116047091170441155105610571
:101D2000710599F0082F2EEC34E08091CA0490914F
:101D3000CB040E94160E882349F0109214041092CE
:101D40001504109216041092170481E00F91089563
:101D50000F93CF93C82F80911304811105C0C1E068
:101D60008C2FCF910F910895409100025091010264
:101D700060910202709103020C2F2EEC34E08091EE
:101D8000CA049091CB040E94160E811102C0C0E0DB
:101D9000E7CFCC2321F381E00E94840E8823B9F39E
:101DA00010921304DDCF8F929F92AF92BF92EF9269
:101DB000FF920F931F93CF934B015C01C42F80912F
:101DC000000290910102A0910202B09103028815D5
:101DD0009905AA05BB0551F181E00E94A80E811169
:101DE0000BC080E0CF911F910F91FF90EF90BF90BB
:101DF000AF909F908F9008958EECE82E84E0F82E9F
:101E000000E012E030E020E0B501A4018091CA04B6
:101E10009091CB040E94740D882319F380920002E4
:101E200090920102A0920202B09203024091130428
:101E30004C2B4093130481E0D5CFCF93DF93EC017B
:101E40006E857F858889998941E00E94D30E882319
:101E500051F08A8920E2829FC001112482539B4F56
:101E6000DF91CF91089590E080E0FACF8F929F921A
:101E7000AF92BF92CF92DF92EF92FF92CF9329EE73
:101E800037E03093CB042093CA04882309F46DC053
:101E900040E060E070E0CB010E94D30E81110BC0E6
:101EA00080E0CF91FF90EF90DF90CF90BF90AF9008
:101EB0009F908F90089580918C068F7789F78091FD
:101EC000980690919906A0919A06B0919B06843647
:101ED0009105A105B10520F3C0909406D090950618
:101EE000E0909606F0909706C114D104E104F10445
:101EF000B9F240E0C701B6010E94D30E882381F2F7
:101F00008091D9049091DA048115924049F6A0910C
:101F1000DE04AA2329F26091DC047091DD046115CE
:101F2000710509F4BDCF2091DB04222309F4B8CF59
:101F3000A09307082093F90790E080E030E0E1E00B
:101F4000F0E0C82FAF01082E02C0440F551F0A94BD
:101F5000E2F72417350769F041E0480F0196893010
:101F6000910579F7409302089BCFC12CD12C7601C3
:101F7000C0CF809302082091E4043091E50450E042
:101F800040E02115310541F42091F2043091F30431
:101F90004091F4045091F5042093FA073093FB0725
:101FA0004093FC075093FD0746015701860E971E8C
:101FB000A11CB11C8092080890920908A0920A08FE
:101FC000B0920B08E091DF04F091E004F0930E086A
:101FD000E0930D08B0E00E94CA4ADC01CB01880DF5
:101FE000991DAA1DBB1D80930F0890931008A09304
:101FF0001108B093120825E0EE0FFF1F2A95E1F7B4
:10200000E150FE4FEF2FFF27E6958E0F9F1FA11D7A
:10201000B11D8093030890930408A0930508B09322
:1020200006088090E1049090E204B12CA12C811468
:10203000910441F48090EE049090EF04A090F0049D
:10204000B090F104C81AD90AEA0AFB0AC80CD91CD4
:10205000EA1CFB1C04C0F694E794D794C794CA9575
:10206000D2F7C092FE07D092FF07E0920008F092EC
:10207000010885EFC8168FE0D806E104F10428F4C2
:102080008CE080930C0881E00CCF80E125EFC21634
:102090002FEFD206E104F104A0F38091FA049091AD
:1020A000FB04A091FC04B091FD0480930F08909371
:1020B0001008A0931108B093120880E2E2CF4F926B
:1020C0005F926F927F928F929F92AF92BF92CF92C8
:1020D000DF92EF92FF920F931F93CF93DF93EC0168
:1020E000423051056105710590F480E0DF91CF9198
:1020F0001F910F91FF90EF90DF90CF90BF90AF9026
:102100009F908F907F906F905F904F9008958985FA
:102110009A85AB85BC850196A11DB11D84179507D5
:10212000A607B70710F3CB88DC88ED88FE888F8977
:10213000803109F042C0BB27A72F962F852F480179
:1021400059012A013B01C80ED91EEA1EFB1E8091CF
:10215000000290910102A0910202B0910302C81600
:10216000D906EA06FB0699F58F898031C1F5B301DE
:10217000A201552766277727440F551F42535B4F0F
:10218000FA0191828082809113048160809313040C
:102190008A89823080F08D819E81AF81B8858C0DD7
:1021A0009D1DAE1DBF1D8093140490931504A09334
:1021B0001604B093170481E099CFDB01CA01E7E070
:1021C000B695A79597958795EA95D1F7B8CF40E052
:1021D000C701B6010E94D30E8111C6CF86CFB301CD
:1021E000A2014F77552766277727440F551F440FC5
:1021F000551F42535B4FFA0180829182A282B382C3
:10220000C2CF8F929F92AF92BF92CF92DF92EF9206
:10221000FF920F931F93CF93DF93FC0181859285EB
:10222000A385B4850196A11DB11D84179507A60746
:10223000B70770F480E0DF91CF911F910F91FF906D
:10224000EF90DF90CF90BF90AF909F908F900895C8
:1022500083889488A588B6888789803189F5BB27CB
:10226000A72F962F852FE9016A017B018F01BC0101
:10227000CD01680D791D8A1D9B1D809000029090F4
:102280000102A0900202B090030286169706A806EB
:10229000B90601F5F8018789803111F5DD24EE24B6
:1022A000FF24F601EE0FFF1FE253FB4F8081918167
:1022B000B0E0A0E088839983AA83BB8381E0BBCF91
:1022C000DB01CA01C7E0B695A79597958795CA9592
:1022D000D1F7C9CF40E00E94D30E8111DBCFAACF46
:1022E000E894C7F8DD24EE24FF24F601EE0FFF1F6B
:1022F000EE0FFF1FE253FB4F80819181A281B381DA
:10230000BF70D8CF4F925F926F927F92AF92BF9281
:10231000CF92DF92EF92FF920F931F93CF93DF93B1
:1023200000D01F92CDB7DEB78C0149835A836B83EF
:102330007C835901C12CD12C7601412C82E0582E8E
:10234000612C712C49815A816B817C819E012F5FA8
:102350003F4FC8010E940111882339F1F80185859A
:10236000A301920104C0220F331F441F551F8A95F9
:10237000D2F7DA01C901C80ED91EEA1EFB1E498137
:102380005A816B817C818789803111F188EF9FEFC1
:10239000AFEFBFE0481759076A077B0798F2F501CE
:1023A000C082D182E282F38281E00F900F900F9081
:1023B0000F90DF91CF911F910F91FF90EF90DF90E1
:1023C000CF90BF90AF907F906F905F904F900895A7
:1023D00088EF9FEFA0E0B0E0DDCFCF93DF93FC016B
:1023E0002581222321F080E0DF91CF910895EC0137
:1023F00080910C08803159F582E08583178A108E10
:10240000118E128E80910D0890910E08B0E0A0E020
:1024100025E0880F991FAA1FBB1F2A95D1F7838B30
:10242000948BA58BB68B85EF97E09C8F8B8F81E08B
:102430008C831E821F82188619861A861B861C862C
:102440001D861E861F86188A198A1A8ACDCF803269
:1024500051F683E0858340910F08509110086091F8
:10246000110870911208478B508F618F728F9F01F6
:102470002D5E3F4F85EF97E00E9482118111D3CFEF
:10248000B2CF8F929F92AF92BF92CF92DF92EF9294
:10249000FF920F931F93CF93DF93EC018D818111F6
:1024A0000EC080E0DF91CF911F910F91FF90EF90D0
:1024B000DF90CF90BF90AF909F908F9008950B8941
:1024C0001C892D893E89041715072607370748F30D
:1024D0004A015B01823031F48A869B86AC86BD86D8
:1024E00081E0E0CF81149104A104B10449F41E827B
:1024F0001F82188619861A861B861C861D86F0CFB9
:102500000A851B852C853D85EB8DFC8D858590E0AE
:102510000996B901A8014150510961097109082EB4
:1025200004C076956795579547950A94D2F775013B
:102530006401E1E0CE1AD108E108F10804C0F69484
:10254000E794D794C7948A95D2F7C416D506E606C1
:10255000F70620F0012B022B032B11F58F89988DA4
:10256000A98DBA8D8E839F83A887B9878E010A5F54
:102570001F4FC114D104E104F10409F4ADCF4E8121
:102580005F816885798598018B8D9C8D0E940111F2
:1025900091E0C91AD108E108F1088111EACF81CF91
:1025A000C41AD50AE60AF70AE1CF3F924F925F922A
:1025B0006F927F928F929F92AF92BF92CF92DF9253
:1025C000EF92FF920F931F93CF93DF93CDB7DEB7B8
:1025D0002C970FB6F894DEBF0FBECDBF5C01DC01B7
:1025E0005B968D909C905C9716964D905D906D904B
:1025F0007C901997411451046104710409F468C076
:10260000BFEF4B1A5B0A6B0A7B0A312CF401818500
:102610009285A385B4859C01AD012F5F3F4F4F4F3D
:102620005F4F29873A874B875C87730162011D8260
:102630001E821F821886F40181859285A385B48548
:102640002D813E814F815885281739074A075B073E
:1026500008F056C089859A85AB85BC858C159D058B
:10266000AE05BF0550F482E0C82ED12CE12CF12C30
:1026700092E0492E512C612C712C9E012F5F3F4F0F
:10268000B701A601C4010E9401118823C9F1898103
:102690009A81AB81BC81892B8A2B8B2B09F1260176
:1026A00037019FEF491A590A690A790A2D813E813B
:1026B0004F8158852F5F3F4F4F4F5F4F2D833E8394
:1026C0004F8358873FEFC31AD30AE30AF30AB3CF05
:1026D000F40140805180628073803324339496CF1C
:1026E000C414D504E604F70409F70FEF1FEF2FEF2A
:1026F0003FE0B701A601C4010E945F10811119C01B
:1027000080E02C960FB6F894DEBF0FBECDBFDF91F0
:10271000CF911F910F91FF90EF90DF90CF90BF90DE
:10272000AF909F908F907F906F905F904F903F9071
:102730000895D50116964D915D916D917C911997F3
:10274000411551056105710539F097018601C401F4
:102750000E945F108823A1F2D5011696CD92DD92DA
:10276000ED92FC921997332051F0D701C6010196E2
:10277000A11DB11DF40180839183A283B383F50170
:102780008789908DA18DB28D892B8A2B8B2B39F463
:102790008481C78AD08EE18EF28E80688483F501B1
:1027A00084818062848381E0ACCF2F923F924F92EC
:1027B0005F926F927F928F929F92AF92BF92CF92D1
:1027C000DF92EF92FF920F931F93CF93DF93EC0171
:1027D0005B012A018D81811115C08FEF9FEFDF9181
:1027E000CF911F910F91FF90EF90DF90CF90BF900E
:1027F000AF909F908F907F906F905F904F903F90A1
:102800002F9008958C8180FFE8CF0B891C892D893A
:102810003E894A855B856C857D85C201B0E0A0E07C
:1028200068017901C41AD50AE60AF70AC816D9065A
:10283000EA06FB0618F42801441A550A42011E0153
:1028400026E0220E311C8114910409F4B3C04A859C
:102850005B856C857D856A0181E0D8228B8D9C8D9E
:102860008A019B01E9E03695279517950795EA952A
:10287000D1F7ED81E230E1F5FC01628D738D848D3D
:10288000958D600F711F821F931F612C22E0722EA5
:102890006C187D088614970408F434012C8126FDF9
:1028A00004C06114F2E07F0671F4009100021091FF
:1028B0000102209102023091030206171707280730
:1028C000390709F053C040E00E94D30E882309F471
:1028D00084CFC60182539B4FD5019C01260D371D25
:1028E000FC012E173F0709F460C041914D93F9CFC9
:1028F000FC0174807A947022C114D10471F47110B7
:102900000CC0452B462B472B39F58F89988DA98D07
:10291000BA8D8E839F83A887B987EB8DFC8D6E81DE
:102920007F81888599856250710981099109258582
:1029300004C0660F771F881F991F2A95D2F7068556
:10294000178520893189600F711F821F931F670DC2
:10295000711D811D911D99CF4E815F81688579859B
:1029600091010E9401118111D8CF37CF75018301E8
:102970009601AB01BC018091CA049091CB040E94E6
:10298000740D882309F429CFA60CB71C8A859B8572
:10299000AC85BD85860D971DA11DB11D8A879B87BE
:1029A000AC87BD87861897084ECF281B390BA20E1F
:1029B000B31EECCFC20113CFCF93DF931F92CDB7DD
:1029C000DEB741E050E0BE016F5F7F4F0E94D5133C
:1029D000019731F4898190E00F90DF91CF910895B4
:1029E0008FEF9FEFF9CFFC01818D928D009711F051
:1029F0000C94DC148FEF9FEF08950F931F93CF93E8
:102A0000DF93EC01898D9A8D10E000E0009799F03A
:102A10000E94DC148C010F3F100769F0898D9A8D9C
:102A2000FC014285538564857585415051096109D2
:102A300071090E944112C801DF91CF911F910F913E
:102A40000895FF920F931F93CF93DF93FC0125818D
:102A5000222309F443C0F62EEC01848187FF31C0A4
:102A6000CF010E941D0F8C01892BC1F18D81823015
:102A700048F48B899C89AD89BE89F801848F958F34
:102A8000A68FB78F8F89988DF801938F828F8F894A
:102A9000988DA98DBA8DB58BA48BE091CC04F09163
:102AA000CD04309759F0B8016A5E7F4FC80148964F
:102AB0001995F801808D918D938B828B8C818F7706
:102AC0008C83F11003C08C818F7E8C838F2DDF91DE
:102AD000CF911F910F91FF900C94A80E80E0DF9191
:102AE000CF911F910F91FF900895FF920F931F9325
:102AF000CF93DF93EC018D81813041F090E080E055
:102B0000DF91CF911F910F91FF9008958C8181FFEC
:102B1000F5CF82FD1BC00091CA041091CB04C801FF
:102B20000E94010D0E94E00CF82EC8010E94CE0CFC
:102B30008FEFF812E3CF8C8185FF1BC060E0CE01E0
:102B40000E9421158C818F7D8C83D8CF4B895C8925
:102B50006D897E898A859B85AC85BD85841795079F
:102B6000A607B707C1F2CE010E9441128111D3CF4F
:102B7000C5CF4091140450911504609116047091D2
:102B80001704452B462B472B21F080E00E94840E32
:102B9000B5CF80618C832A853B85317080E092E0DF
:102BA000821B930BADCFCF93DF93EC0161E00E94CA
:102BB0002115882311F01D8281E0DF91CF910895C6
:102BC000CF92DF92EF92FF921F93CF93DF93C82FA4
:102BD00080911808882321F083E198E00E94D315A2
:102BE0001092F4071092F2071092EF071092EE077E
:102BF000C093ED070E94C007EB0161E08091ED07F3
:102C00000E94290761E08091ED070E94FB061FB733
:102C1000F8948091C904811127C0E3E3F7E084911F
:102C2000E9E7F7E09491E82FF0E0EE0FFF1FE65B95
:102C3000F94FA591B491EC91E92321F461E085E38A
:102C40000E94FB0661E085E30E9429078CB5806144
:102C50008CBD8CB580648CBD61E084E30E94290743
:102C600061E083E30E9429078091C9048F5F80930C
:102C7000C9041FBF82E58093E7071092E80780919F
:102C8000E7079091E8070E94FE0C1AE08FEF0E9480
:102C9000D90C1150D9F789EE97E00E94010D20E080
:102CA00030E0A90160E089EE97E00E94170D182F2F
:102CB0008093F307813081F00E94C0076C1B7D0B6D
:102CC000613D774060F381E08093EE0789EE97E005
:102CD0000E94CE0C90E078C02AEA31E040E050E05B
:102CE00068E089EE97E00E94170D82FF2AC01093DA
:102CF000F4078091F407C12CD12C7601823029F49D
:102D0000C12CD12CE12C80E4F82E20E030E0A90188
:102D100067E389EE97E00E94170DA701960169E22B
:102D200089EE97E00E94170D8093F3078823C1F086
:102D30000E94C0076C1B7D0B613D774030F388E03B
:102D4000C3CF14E00E94E00C8093F3071150D1F739
:102D50008A3A11F082E0B8CF82E08093F407C9CFBD
:102D60008091F4078230D1F420E030E0A9016AE3D9
:102D700089EE97E00E94170D882311F086E0A4CF1A
:102D80000E94E00C807C803C19F483E08093F4077F
:102D90000E94E00C0E94E00C0E94E00C89EE97E09B
:102DA0000E94CE0C80E58093E7071092E80781E04F
:102DB0000E94360F882389F083E198E00E94ED118C
:102DC00091E0882309F486CF892FDF91CF911F915D
:102DD000FF90EF90DF90CF90089580E00E94360F33
:102DE000882309F477CFE8CFFC01818D928D00977D
:102DF00019F061E00C94211508958F929F92AF9283
:102E0000BF92CF92DF92EF92FF92CF93DF93EC01CC
:102E10000E94D51281110CC080E0DF91CF91FF900C
:102E2000EF90DF90CF90BF90AF909F908F900895DC
:102E3000EB8DFC8DCE80DF80E884F98482E0C81AB7
:102E4000D108E108F108858504C0CC0CDD1CEE1C1E
:102E5000FF1C8A95D2F786859785A089B189C80E0F
:102E6000D91EEA1EFB1E848146015701880E911C63
:102E7000A11CB11CC814D904EA04FB04F9F081E0D8
:102E8000881A9108A108B10881E00E94A80E882341
:102E900019F2EEECF4E0119286E0EE3CF807D9F777
:102EA0008092000290920102A0920202B09203026C
:102EB00080911304816080931304DCCFEB8DFC8D33
:102EC000258580E092E0A0E0B0E004C0880F991F63
:102ED000AA1FBB1F2A95D2F74B895C896D897E8911
:102EE000840F951FA61FB71F8B8B9C8BAD8BBE8B42
:102EF00081E093CF2F923F924F925F926F927F9299
:102F00008F929F92AF92BF92CF92DF92EF92FF92F9
:102F10000F931F93CF93DF9300D01F921F92CDB7D3
:102F2000DEB77C016B011A01DC0115968C911597B7
:102F3000813009F0CAC014961C9111FFC6C012FD61
:102F4000B0C0410112951F70109511701D83D701FB
:102F50001A960D911D912D913C911D97811491040C
:102F600009F426C15B968D919C915C97FC0174805D
:102F70007A94B901A80129E0769567955795479508
:102F80002A95D1F774221170711020C00115110516
:102F9000E9F416964D915D916D917C9119974115CB
:102FA00051056105710509F099C057968D919D9164
:102FB0000D90BC91A02D0097A105B10509F0B0C0FE
:102FC000C7010E94D512882309F47FC080E092E0F7
:102FD000801B910B54018815990508F45C01D701F9
:102FE0005B964D915C915C9716968D919D910D909D
:102FF000BC91A02D0297A109B109FA01258504C051
:10300000880F991FAA1FBB1F2A95D2F7468557859F
:1030100060897189840F951FA61FB71F9C01AD01A0
:10302000270D311D411D511D29013A01A11432E026
:10303000B30609F07BC08091000290910102A0913B
:103040000202B091030284159505A605B70559F44F
:103050008FEF9FEFDC018093000290930102A09319
:103060000202B09303020D819601B301A201809187
:10307000CA049091CB040E94160E882331F19EEF72
:10308000D91A8A189B08F70182859385A485B5858E
:103090008A0D9B1DA11DB11D82879387A487B587CB
:1030A00056CFF7014389548965897689828593854E
:1030B000A485B585481759076A077B0709F441CFEE
:1030C000C7010E94411281113CCF81E090E0D701FD
:1030D00013969C938E93129780E007C09E012F5FFA
:1030E0003F4F0E940111811102C090E07BC0898195
:1030F0009A81AB81BC81F701238D348DF901278939
:1031000048EF5FEF60E070E0203121F048EF5FEFC3
:103110006FEF7FE084179507A607B70708F050CF39
:10312000F70186839783A087B18750CF01151105DA
:1031300091F5D7011A964D915D916D917C911D97F6
:1031400053968D919D910D90BC91A02D48175907D4
:103150006A077B0700F181E00E94A80E882309F42A
:10316000B4CF40920002509201026092020270922B
:1031700003028091130481608093130402531B4F58
:10318000D601C8018A0D9B1DF8018E179F0759F0C3
:103190002D912193FACF41E0C301B2010E94D30ED9
:1031A0008111ECCF92CF801B910BC80ED91E69CF35
:1031B00014968C91149753964D915D916D917C91DD
:1031C0005697401751076207730720F5F701038BE5
:1031D000148B258B368B80688483F701848183FD73
:1031E00026C0C1010F900F900F900F900F90DF91AC
:1031F000CF911F910F91FF90EF90DF90CF90BF90F4
:10320000AF909F908F907F906F905F904F903F9086
:103210002F9008952091CC043091CD04232BE9F216
:1032200021143104D1F2806814968C93D6CF61E0DA
:10323000C7010E942115882309F447CFD2CFCF932D
:10324000DF931F92CDB7DEB7698341E050E0BE0146
:103250006F5F7F4F0E947A170F90DF91CF91089593
:10326000CF93DF93EC01E98DFA8D309749F481E03B
:1032700090E09B838A8390E080E0DF91CF91089576
:1032800013821282898D9A8D0E947A17E98DFA8DA8
:1032900022813381232B59F7F0CFCF93C42FFC0128
:1032A00084A991E09093CE068093F0061092CF0609
:1032B0001092F1068BED97E00E94A50A6C2F8BED22
:1032C00097E00E94A50A0E94440981E0CF910895E9
:1032D0000F931F93CF93DF93EC010A81802F829588
:1032E000880F807E0E81000F000F082B8885082B29
:1032F0001A85812F8295880F807E1C85110F110FF2
:10330000182B8E85182BE881F9810280F381E02D3E
:103310004C8162EFCE011995E881F9810280F38139
:10332000E02D402F64EFCE011995E881F9810280EC
:10333000F381E02D412F65EFCE01DF91CF911F91F9
:103340000F911994FF920F931F93CF93DF931F92C6
:10335000CDB7DEB78C01DC01ED91FC910480F581E5
:10336000E02D21E0AE014F5F5F4F60ED199589813F
:10337000883509F447C0803609F04CC020E630E0BB
:10338000F80132AB21ABD801D0968C93D097ED9158
:10339000FC910480F581E02D26E0A801405F5F4F9D
:1033A00068E8C8011995F82ED801ED91FC910480C8
:1033B000F581E02D22E1A8014A5E5F4F6EE8C80169
:1033C0001995F822D801ED91FC910480F581E02D4A
:1033D00021E0A801485D5F4F61EAC8011995F82214
:1033E000D801ED91FC910480F581E02D27E0A80142
:1033F000475D5F4F61EEC8011995F822C8010E9430
:1034000068190CC028E530E0D801D2963C932E9381
:10341000D197B9CFF80112AA11AAF12CF801F3AA99
:103420008F2D0F90DF91CF911F910F91FF900895F5
:10343000FC0184819581A681B78180839183A283D9
:10344000B38380859185A285B38584839583A68384
:10345000B783408751876287738708958F929F92C1
:10346000AF92BF92CF92DF92EF92FF920F931F9392
:10347000CF93DF9300D01F92CDB7DEB7FC018581DB
:10348000813091F080E00F900F900F900F90DF91BE
:10349000CF911F910F91FF90EF90DF90CF90BF9051
:1034A000AF909F908F900895848181FFEBCF8389A7
:1034B0009489A589B689892B8A2B8B2B09F45FC047
:1034C0007F0140E050E0BA01CF010E944112882301
:1034D000C9F2F701C38CD48C8788908CA18CB28CF4
:1034E00082E090E0A0E0B0E0F60180839183A283C7
:1034F000B3839E012F5F3F4FB501A401C6010E9417
:103500000111882309F4BECF00E010E09801B50155
:10351000A401C6010E945F10882309F4B3CF8980FB
:103520009A80AB80BC80F6018789803119F188EFE1
:103530009FEFAFEFBFE088169906AA06BB06C8F258
:10354000F701178A108E118E128E138A148A158A2B
:10355000168A84818068848361E0C7010E942115F6
:10356000882309F48FCF40E050E0BA01C7010E94E0
:10357000411289CF88EF9FEFA0E0B0E0DCCF81E07F
:1035800082CFCF92DF92EF92FF921F93CF93DF9380
:10359000EC0180E2689FF0011124E253FB4F938518
:1035A000917161F0842F827449F080E0DF91CF91B6
:1035B0001F91FF90EF90DF90CF900895142F6A8BAA
:1035C0008091000290910102A0910202B091030249
:1035D0008E879F87A88BB98BC488D588F12CE12C66
:1035E0007601DD24CC24CF8AD88EE98EFA8E828DA6
:1035F000938DB0E0A0E0AC01BD014C295D296E299E
:103600007F294F8B588F698F7A8F83858871B1F4AA
:10361000848D958DA68DB78D8B8B9C8BAD8BBE8B42
:1036200081E08D831F701C831E821F82188619867D
:103630001A861B861C861D8681E0B8CF803109F072
:10364000B4CF9E012D5E3F4F8B8D9C8D0E948211C9
:10365000882309F4AACF84E0E4CFCF92DF92FF92CF
:103660000F931F93CF93DF936C0181E08093CE067D
:1036700088E68093F0061092CF061092F10660E083
:103680008BED97E00E94A50A0E94440967E088E656
:103690000E9475081092C8048093C7048BED97E0D0
:1036A0000E945E0A8F77282F30E094E035952795A9
:1036B0009A95E1F7922F990F990FC22FC91BCC0F42
:1036C000C80F8BED97E00E945E0A9C0144E035959F
:1036D00027954A95E1F72F703327922F990F990F6D
:1036E000D22FD91BDD0FD80F8BED97E00E945E0A19
:1036F0009C0154E0359527955A95E1F72F703327B3
:10370000922F990F990F122F191B110F180F8BED74
:1037100097E00E945E0A8BED97E00E945E0A9C0192
:1037200064E0359527956A95E1F72F703327922F3E
:10373000990F990F022F091B000F080F8BED97E0CF
:103740000E945E0A9C0174E0359527957A95E1F711
:103750002F703327922F990F990FF22EF91AFF0C21
:10376000F80E8BED97E00E945E0A9C01E4E035952F
:103770002795EA95E1F72F703327922F990F990F2C
:10378000291B220F820FF6018083F18202831383AB
:10379000D483C583C601DF91CF911F910F91FF9014
:1037A000DF90CF900895EF92FF920F931F93CF93E6
:1037B000DF9300D000D0CDB7DEB77C018B01CE0106
:1037C00001960E942D1B898190E04496982F8827AE
:1037D000990F2A8140E2249F900111244B81242BD0
:1037E000822B932BF701918380838D81F0E28F9F51
:1037F000C00111242C8130E0322F2227330F330FE8
:10380000330F822B932B2E8130E035952795822B19
:10381000932BF8019183808326960FB6F894DEBF30
:103820000FBECDBFDF91CF911F910F91FF90EF9011
:103830000895EF92FF920F931F93CF93DF938C0124
:103840007A01D22FFC0184A991E09093CE06809357
:10385000F0061092CF061092F1068BED97E00E94D1
:10386000A50A0E9444096D2FD13208F060E2F801E8
:1038700084A90E947508182F1092C8048093C70469
:10388000C0E08091C804181751F08BED97E00E94BA
:103890005E0AF701EC0FF11D8083CF5FF2CF81E06C
:1038A000CD1380E0DF91CF911F910F91FF90EF90AA
:1038B00008957F928F929F92AF92BF92CF92DF92A4
:1038C000EF92FF920F931F93CF93DF935C018B01D5
:1038D0007A01D0E0C0E0CE15DF0509F181E0E816FD
:1038E000F10419F4002E000C110BCE0123E0880F17
:1038F000991F2A95E1F7680102C0D594C7948A956B
:10390000E2F745018C0E9D1EC4010E94B44AC81600
:1039100021F06C2DC4010E94BC4A2196DCCFDF91BE
:10392000CF911F910F91FF90EF90DF90CF90BF90BC
:10393000AF909F908F907F9008950F931F93CF9398
:10394000DF93C3EDD9E010E000E08AE0C33AD80786
:1039500061F04C8550E068817981C8010E94591C52
:103960008C85080F111D2D96F0CFDF91CF911F91FF
:103970000F910895CF93DF93EC018881998100978F
:1039800011F00E949D4E198218821D821C821B829A
:103990001A82DF91CF910895FC0180819181009777
:1039A00011F00C949D4E0895CF93DF93EC01898D17
:1039B0009A8D009741F00E94D315898D9A8D0E94AF
:1039C0009D4E1A8E198EDF91CF9108950E94075057
:1039D000FB0101900020E9F73197AF01461B570B1F
:1039E000DC01ED91FC910280F381E02D1994CF93DD
:1039F000DF930E94FF05EC016AE772E08EE397E037
:103A00000E94E81C8C0F9D1FDF91CF9108958F922B
:103A10009F92AF92BF920F931F93CF93DF93CDB737
:103A2000DEB7A1970FB6F894DEBF0FBECDBF19A2C7
:103A3000423008F44AE08E010F5D1F4F842E912C16
:103A4000B12CA12CA50194010E94114CE62FB901C3
:103A5000CA01EA3004F5E05DD801EE938D01232B15
:103A6000242B252B79F790E080E0109729F0BD01F9
:103A70008EE397E00E94E81CA1960FB6F894DEBF93
:103A80000FBECDBFDF91CF911F910F91BF90AF902F
:103A90009F908F900895E95CDFCFCF92DF92EF92F5
:103AA000FF92CF93DF936B017C016DE28EE397E091
:103AB0000E94B205EC0166277727CB016C197D09BE
:103AC0008E099F094AE00E94071D8C0F9D1FDF9100
:103AD000CF91FF90EF90DF90CF900895CF93DF9339
:103AE000BC01990F880B990B97FF0EC00E944D1DCA
:103AF000EC016AE772E08EE397E00E94E81C8C0F0D
:103B00009D1FDF91CF9108954AE00E94071DF0CFDD
:103B10000F931F93CF93DF93EC010E940E058C014E
:103B20006AE772E0CE010E94E81C800F911FDF91CE
:103B3000CF911F910F910895FC0180819181009791
:103B400011F00C94AA4660E070E0CB010895FC01EE
:103B500024813581232B39F421E0FB0180818823E6
:103B600049F020E007C0808191810E943C5021E013
:103B7000892BB9F7822F0895FC0124813581FB013F
:103B80004481558124173507E1F4FC01808191813E
:103B9000FB01608171810097D1F061157105A1F47D
:103BA000232BC1F0FC01808190E008C0232B91F011
:103BB000FB01808190E091958195910921E0892B0D
:103BC00009F020E0822F08950E943C50F7CF611544
:103BD000710561F721E0F6CFAF92BF92CF92DF92ED
:103BE000EF92FF920F931F93CF93DF935C016B01D2
:103BF00083EDE82E89E0F82ED0E0C0E010E000E090
:103C000081E0C816D10409F4E801B501C7010296A4
:103C10000E94BC1D882339F0E2E0CE16D10491F455
:103C2000C1E0D0E00FC0C114D10421F4F7018485B4
:103C3000C80FD11D0F5F1F4FFDE0EF0EF11C0031CB
:103C40001105F1F6CE01DF91CF911F910F91FF90F9
:103C5000EF90DF90CF90BF90AF9008950F931F9398
:103C6000CF93DF938C01EB01FC0180819181009760
:103C7000E1F06881798161157105A9F04281538174
:103C80002C813D814217530770F00E9445508C8172
:103C90009D81F801958384831D821C82DF91CF91E1
:103CA0001F910F9108950E949D4E88819981F8017E
:103CB000918380838A819B81938382838C819D8180
:103CC00095838483198218821B821A82E5CF0F9311
:103CD0001F93CF93DF93EC0188819981009759F06E
:103CE0002A813B812617370730F081E0DF91CF91A1
:103CF0001F910F9108958B016F5F7F4F0E94264F98
:103D0000009759F0998388831B830A832C813D8116
:103D1000232B59F7FC011082E8CF80E0E7CFEF9228
:103D2000FF920F931F93CF93DF93EC017B01CB01A5
:103D30000E94D8460097A9F00C811D81080F191F19
:103D4000B801CE010E94671E882361F02881398165
:103D50008C819D81B701820F931F0E94D1461D83E4
:103D60000C8381E0DF91CF911F910F91FF90EF9035
:103D70000895EF92FF920F931F93CF93DF936115F6
:103D8000710541F480E0DF91CF911F910F91FF9079
:103D9000EF90089541155105B1F07B01EC010C81C4
:103DA0001D81040F151FB8010E94671E882351F35F
:103DB000288139818C819D81B701820F931F0E94D8
:103DC00045501D830C8381E0DECFEF92FF920F936D
:103DD0001F93CF93DF9300D000D01F921F92CDB7D7
:103DE000DEB77C01CB014AE08E010F5F1F4FB801A7
:103DF0000E94E146F80101900020E9F73197AF01F8
:103E0000401B510BB801C7010E94B91E811103C0AC
:103E1000C7010E94BA1CC70128960FB6F894DEBFEE
:103E20000FBECDBFDF91CF911F910F91FF90EF900B
:103E30000895CF93DF93EC01FB0101900020E9F797
:103E40003197AF01461B570B0E94B91E811103C069
:103E5000CE010E94BA1CCE01DF91CF910895CF937D
:103E6000DF93EC01FB0144815581608171810E94E7
:103E7000B91E811103C0CE010E94BA1CCE01DF9190
:103E8000CF910895EF92FF920F931F93CF93DF93FB
:103E9000CDB7DEB764970FB6F894DEBF0FBECDBFC7
:103EA0007C01CB01BA018E010F5F1F4F22E044E07D
:103EB0000E946E46FC0101900020E9F73197AF01A6
:103EC000481B590BBC01C7010E94B91E64960FB66E
:103ED000F894DEBF0FBECDBFDF91CF911F910F9140
:103EE000FF90EF900895EF92FF920F931F93CF935F
:103EF000DF9300D000D01F92CDB7DEB77C01CB019D
:103F00004AE08E010F5F1F4FB8010E940947F80178
:103F100001900020E9F73197AF01401B510BB80128
:103F2000C7010E94B91E27960FB6F894DEBF0FBED8
:103F3000CDBFDF91CF911F910F91FF90EF9008952A
:103F4000EF92FF920F931F93CF93DF9300D01F92B6
:103F5000CDB7DEB77C01862F4AE08E010F5F1F4F81
:103F6000B80190E00E94E146F80101900020E9F7D5
:103F70003197AF01401B510BB801C7010E94B91E18
:103F80000F900F900F900F90DF91CF911F910F9195
:103F9000FF90EF900895EF92FF920F931F93CF93AE
:103FA000DF93EC018B01CB010E94D8467C01BC0160
:103FB000CE010E94671E81110BC0CE010E94BA1C67
:103FC000CE01DF91CF911F910F91FF90EF90089557
:103FD000FD82EC82B801888199810E94D146F0CFA0
:103FE000FC011182108213821282158214820C94B9
:103FF000CB1F0F931F93CF93DF9300D000D0CDB78B
:10400000DEB78C018093BE0468E373E0CE010196B5
:104010000E94F01F0130110561F1F4F461E373E0D7
:10402000012B11F182E093E00E94FF05BE016F5F5A
:104030007F4F8EE397E00E94881DCE0101960E947B
:10404000CC1C26960FB6F894DEBF0FBECDBFDF9115
:10405000CF911F910F9108950230110569F063E12E
:1040600073E003301105F1F6CE0101960E94CB1FDB
:10407000D9CF6DE273E0F8CF61E273E0F5CFEF9254
:10408000FF920F931F93CF93DF93EC017B018A0183
:10409000BA010E94671E81110BC0CE010E94BA1C9A
:1040A000CE01DF91CF911F910F91FF90EF90089576
:1040B0001D830C83B701888199810E944550F0CF00
:1040C000FB0101900020E9F73197AF01461B570B28
:1040D0000C943F200F931F93CF93DF9300D000D019
:1040E00000D0CDB7DEB78C01862FF8011182108287
:1040F00013821282158214824AE0BE016F5F7F4FE5
:1041000090E00E940947BE016F5F7F4FC8010E9487
:10411000602029960FB6F894DEBF0FBECDBFDF91A9
:10412000CF911F910F910895CF93DF93EC01FB0185
:104130008617970749F0608171816115710541F01B
:10414000448155810E943F20CE01DF91CF91089597
:104150000E94BA1CF9CFFC011182108213821282D4
:10416000158214820C949420AF92BF92CF92DF926A
:10417000EF92FF920F931F93CF93DF9300D000D065
:10418000CDB7DEB78C01BC01CE0101960E94AB20F9
:1041900070E060E0CE0101960E94EC1D5C01CE0152
:1041A00001960E94CC1CB801CE0101960E94AB2062
:1041B00061E070E0CE0101960E94EC1D2DE0289F89
:1041C000F001299FF00D1124ED52F64FC484D12C3B
:1041D00010E000E0F12CE12C0C151D05B4F4C50134
:1041E000800F911F0E94B44A90E0980143E0220F93
:1041F000331F4A95E1F702C0880F991F2A95E2F70D
:10420000E82AF92A0F5F1F4FE7CFCE0101960E94DF
:10421000CC1CC70126960FB6F894DEBF0FBECDBFEB
:10422000DF91CF911F910F91FF90EF90DF90CF9092
:10423000BF90AF900895CF93DF9300D000D0CDB75B
:10424000DEB78DEA96E00E94FF0565EA76E0CE01D2
:1042500001960E94F01FCE0101960E94B4200E9498
:104260006E1DCE0101960E94CC1C8EE896E00E9445
:10427000FF056FEF78E08EE397E00E94881D269699
:104280000FB6F894DEBF0FBECDBFDF91CF9108957A
:104290000F931F93CF93DF93CDB7DEB72C970FB655
:1042A000F894DEBF0FBECDBF8BE796E00E94F71CEF
:1042B0000E941B2110E000E0035F1F4F0D3D110520
:1042C00041F1B8016853764FCE0107960E94AB20AA
:1042D000BE01695F7F4F8EE397E00E940E0587E77E
:1042E00096E00E94FF05BE01695F7F4FCE010196F7
:1042F0000E94AB20CE0101960E94B4200E946E1D48
:10430000CE0101960E94CC1CCE0107960E94CC1CC7
:10431000D3CF84E696E00E94F71C2C960FB6F89453
:10432000DEBF0FBECDBFDF91CF911F910F910895DA
:10433000CF92DF92EF92FF920F931F93CF93DF9371
:1043400000D000D0CDB7DEB76C01BC0183EA9AE0A3
:104350000E94BC1D81115AC0B601CE0101960E9477
:10436000AB2089EAE82E8AE0F82E10E0BE016F5FEC
:104370007F4FC7010E94BC1D91E0910F29E0E20E22
:10438000F11C882369F1CE0101960E94CC1C90910A
:10439000FE082091FD088091FC0889832A839B8375
:1043A00061E00E94290761E08A810E9429078B81D0
:1043B00061E070E023E0829FC00111240E94E54D7E
:1043C0009D838C83F12C8B81F81670F400E020E043
:1043D00040E06F2DCE0101960E94470CF394F3CF7D
:1043E000973089F2192FC2CF89E0189FF00111246C
:1043F000E755F54F00852781468160E0CE010196A3
:104400000E94470C8C819D810E949D4EB60183EADB
:104410009AE00E94942026960FB6F894DEBF0FBE55
:10442000CDBFDF91CF911F910F91FF90EF90DF9063
:10443000CF9008958F929F92AF92BF92CF92DF92CA
:10444000EF92FF920F931F93CF93DF9300D000D092
:10445000CDB7DEB77C016B01042F0E94C0074B0172
:104460005C0110911502111101E08091BF0490913F
:10447000C004A091C104B091C204A5019401281BFD
:10448000390B4A0B5B0BCA01B90128EE33E040E05F
:1044900050E00E94114C802F90E0B0E0A0E0821725
:1044A0009307A407B507E0F48092BF049092C0047C
:1044B000A092C104B092C20481E0182710931502A3
:1044C000111101C07601B701CE0101960E94AB2007
:1044D000CE0101960E949821CE0101960E94CC1C2B
:1044E00026960FB6F894DEBF0FBECDBFDF91CF91F9
:1044F0001F910F91FF90EF90DF90CF90BF90AF9002
:104500009F908F900895CF93DF9300D000D0CDB7C8
:10451000DEB7BC01CE0101960E94AB20CE01019610
:104520000E949821CE0101960E94CC1C26960FB6BF
:10453000F894DEBF0FBECDBFDF91CF910895FC018F
:10454000118210821382128215821482FB01019063
:104550000020E9F73197AF01461B570B0C943F2021
:104560006F927F928F929F92AF92BF92CF92DF9283
:10457000EF92FF920F931F93CF93DF93EC018B0188
:10458000DB011496AD90BC907501B1E0EB1AF10817
:10459000EFEFFFEF912C812C90E080E070E060E085
:1045A000E816F9062CF12617370734F1DC011196CD
:1045B0006D018A159B0560F4D8016D907C906114A3
:1045C000710431F0D301A80FB91F5C91451719F0A0
:1045D0008E159F0559F46F5F7F4F4F01BFEF8B1A08
:1045E0009B0AF6018E159F0509F0FC01C601D8CF84
:1045F000261737070CF03FC06F01E815F90510F0DA
:1046000064014F016CE772E0CE010E949F22F80125
:10461000E480F580CE14DF04D8F48E149F0408F4EF
:104620007401D8016D917C91FB01EE0DFF1DB080EE
:1046300010826C0D7D1DCE0161157105C9F00E94BF
:104640006020F80180819181E80EF91ED701BC92AB
:10465000CE01DF91CF911F910F91FF90EF90DF90EE
:10466000CF90BF90AF909F908F907F906F90089564
:104670000E94BA1CE6CF6CE772E0CE010E949F2236
:10468000E7CF85ED8093BC0080913A0790913B077E
:10469000A0913C07B0913D070796A11DB11D23E0F5
:1046A000B695A795979587952A95D1F72091BC0047
:1046B00024FD03C010923807089540913A075091A5
:1046C0003B0760913C0770913D07452B462B472BDC
:1046D00069F30097A105B10541F025E32A95F1F7AB
:1046E00000000197A109B109E1CF809139070C942D
:1046F00054089F92AF92BF92CF92DF92EF92FF92B7
:104700000F931F93CF93DF9300D000D000D01F9260
:104710001F92CDB7DEB77C01FC018581811115C0E8
:10472000FE013196CE010C966F0130E23193E8170D
:10473000F907E1F7DA0130E087E09D91B92E99237E
:1047400029F19E3239F48A3011F480E0DDC038E07E
:104750008AE0F3CFECEAF3E04491442321F0319670
:104760009413FACFF2CF831780F34FED490F4E35F4
:1047700060F74FE9490F4A3118F440EEB42EB90EF4
:10478000F601E30FF11DB0823F5FD7CF8981803200
:10479000E1F2A22E8B01FB01838D948DF701948FA2
:1047A000838FFB011682178210861186128613866C
:1047B00014861586F80182859385A485B58543897D
:1047C00054896589768984179507A607B70708F085
:1047D0004CC025E0B695A795979587952A95D1F772
:1047E000F82FFF709F2EF8018581823008F4ADCF3D
:1047F000C8010E94DC1497FDA8CFF801828593853B
:10480000A485B5854F96A11DB11D82879387A48786
:10481000B587F0E29F9EB001112462537B4F611572
:10482000710509F492CFFB018081882341F0853E18
:1048300009F058C0BB2029F0BB24B394BBCFB11002
:104840000EC0F701928A8091000290910102A0911E
:104850000202B091030286879787A08BB18BFB0180
:1048600080818111E9CFBB24B3948A2D827182317A
:1048700009F06BCFBB2009F459C0C7010E941D0F7E
:104880008C01892B09F461CF80E2F80111928A959D
:10489000E9F78BE0F601D80101900D928A95E1F7D6
:1048A000E091CC04F091CD04309709F44FC0B801E9
:1048B000625F7F4FC80140961995F8018089918900
:1048C000938B828B918F808F86859785978B868B34
:1048D00081E00E94A80E882309F437CF4A2DF70102
:1048E00062890FC04BE050E0C6010E941450892B32
:1048F00009F060CF8A2D80734A2D692D803309F429
:1049000024CFC7010E94C11A2B960FB6F894DEBFC0
:104910000FBECDBFDF91CF911F910F91FF90EF9010
:10492000DF90CF90BF90AF909F900895F801858160
:10493000823009F40ACFC8010E94FD16882309F4C9
:1049400004CFF701128A0EEC14E09ECF81E298E2C8
:10495000F801918B808B80E098E097878687ADCFB8
:104960005F926F927F928F929F92AF92BF92CF92FF
:10497000DF92EF92FF920F931F93CF93DF93CDB708
:10498000DEB7C754D1090FB6F894DEBF0FBECDBF56
:104990005C013B0119A218A286E592E09F8F8E8FE1
:1049A0001BA21C821B829A8389831E8210E000E076
:1049B0006E018EE1C80ED11C83E1E82E88E0F82E4E
:1049C000F501E00FF11F80818F3211F40F5F1F4F4F
:1049D000D501A00FB11FFE01FB9690E080E04F01D2
:1049E0002D912F3249F0222339F00F5F1F4F01968E
:1049F00021938C309105A1F7880D991DFC0110823F
:104A0000F501E00FF11F80818F3211F40F5F1F4F0E
:104A1000F501E00FF11F508041E0511040E030E01F
:104A200020E0B401C701F3011995811121C0F3E120
:104A3000EF16F8E0FF06C1F480E0C95BDF4F0FB668
:104A4000F894DEBF0FBECDBFDF91CF911F910F91C4
:104A5000FF90EF90DF90CF90BF90AF909F908F909E
:104A60007F906F905F900895C7010E94D315E4CFA7
:104A7000552091F021E0A401B701C6010E947923DD
:104A8000982E83E1E81688E0F80681F0C7010E94BD
:104A9000D315911010C0D0CF93E1E91698E0F90634
:104AA00019F0C7010E94D31581E0C7CF992021F2E8
:104AB000FE0131967F019E2D8F2D7601C92ED82EB5
:104AC0007FCFCF93DF93CDB7DEB76D970FB6F89456
:104AD000DEBF0FBECDBF442399F1AB01BC011C82E8
:104AE0001B8286E592E09A8389831E8222E0CE01B2
:104AF00001960E94792381110EC090E081E091110E
:104B000001C080E06D960FB6F894DEBF0FBECDBF3A
:104B1000DF91CF910895CE0101960E942E1A88232D
:104B200061F3CE0101960E941D0F009731F325EE2F
:104B3000FC0120831E8281E00E94A80E982FDECF08
:104B400081E0E0CF8F929F92AF92BF92CF92DF929F
:104B5000EF92FF920F931F93CF93DF93CDB7DEB702
:104B6000ED970FB6F894DEBF0FBECDBF8C016B0181
:104B70001CA21BA286E592E09AA389A31EA21C8216
:104B80001B829A8389831E8221E0AB01B801CE018A
:104B900001960E947923F82E8823E9F0CE01019630
:104BA0000E94D31581E0ED960FB6F894DEBF0FBEDC
:104BB000CDBFDF91CF911F910F91FF90EF90DF90CC
:104BC000CF90BF90AF909F908F90089590E080E03D
:104BD00030E020E06FC023E3A601B801CE0181964A
:104BE0000E947923882309F47EC081E08DA384E0AC
:104BF0008EA3CE0181960E94FD16882309F473C00E
:104C000061E0CE0181960E942115882309F46BC0D2
:104C1000CE0181960E941D0FFC01892B09F463C00F
:104C200080E1838780E2DE01119601900D928A95E2
:104C3000E1F7FE013296CE010C9620E22193E817AF
:104C4000F907E1F78EE2E82EE982ECADFDAD68AD43
:104C500079AD8AAD9BAD62507109810991092585B5
:104C600004C0660F771F881F991F2A95D2F7868484
:104C70009784A088B188680D791D8A1D9B1D41E02D
:104C80000E94D30E882379F180E2FE013196AEECCA
:104C9000B4E001900D928A95E1F7EA82F8018581EE
:104CA0008250823008F492CF4789508D618D728D89
:104CB000CA019B013E8B2D8B9C8F8B8F80E2FE0166
:104CC0003196AEEEB4E001900D928A95E1F780E462
:104CD00090E0A0E0B0E08BA79CA7ADA7BEA781E0C5
:104CE0000E94A80EF82E81E0F1105DCF80E05BCF2E
:104CF000EF92FF920F931F93CF93DF93EC017B0111
:104D00008A011B821A8288EE93E0A0E0B0E08C83D7
:104D10009D83AE83BF8380E292E0998388838DE197
:104D200090E00E94014E9A8F898F009779F02DE1D3
:104D3000F701DC0101900D922A95E1F74CE050E07B
:104D4000B801CE010C960E944C50188EDF91CF9185
:104D50001F910F91FF90EF9008952F923F924F92E5
:104D60005F926F927F928F929F92AF92BF92CF92FB
:104D7000DF92EF92FF920F931F93CF93DF93CDB704
:104D8000DEB7C756D1090FB6F894DEBF0FBECDBF50
:104D90005C013B01A6964FAFA69719A218A286E523
:104DA00092E09F8F8E8F1BA21C821B829A83898325
:104DB0001E824E018EE1880E911CC4010E94ED11ED
:104DC00063018E010F5F1F4F240118016FE270E035
:104DD000C6010E943150009709F459C0F6012081A4
:104DE0002F3271F4FFEFCF1ADF0A902F812F82014B
:104DF000492E582E942D852D2801092F182FE6CFE6
:104E00008C198D3008F08CE0E82EF12CA701B6014A
:104E1000CE01885A9F4F0E944C50E8E5F0E0EC0F1D
:104E2000FD1FEE0DFF1D1082C8010E94D31521E069
:104E3000AE01485A5F4FB201C8010E947923811127
:104E400020C01EAE1DAE86E592E09CAF8BAF2196D2
:104E50001FAE2197A896EEADFFADA8976E0E7F1EF0
:104E6000F3018081811120C0BE01655C7F4FC101CB
:104E70000E94810B45E852E0B101C5010E947826ED
:104E800031C0CE0CDF1CC2010E94D315B3CFC601C6
:104E900086199709A8969FAF8EAFA897B201CE0149
:104EA000CB960E94810BD6CF19A218A286E592E07C
:104EB0009F8F8E8F1BA221968FAD219781112DC0C0
:104EC000F5011382128288EE93E0A0E0B0E08483C3
:104ED0009583A683B78380E292E091838083128ECC
:104EE000118E1486C501C959DF4F0FB6F894DEBF85
:104EF0000FBECDBFDF91CF911F910F91FF90EF902B
:104F0000DF90CF90BF90AF909F908F907F906F90E9
:104F10005F904F903F902F900895A6962FADA69743
:104F2000A301BE01655C7F4FC4010E9479238823E1
:104F300039F2CE01CB960E94D315A6968FADA697D7
:104F40008670863039F449A95AA96BA97CA9C40195
:104F50000E944112B401C1010E94810BA3018CCFB8
:104F60002F923F924F925F926F927F928F929F9279
:104F7000AF92BF92CF92DF92EF92FF920F931F9367
:104F8000CF93DF93CDB7DEB7C45BD1090FB6F894EA
:104F9000DEBF0FBECDBF2C01CE0183559F4F0E94B7
:104FA0002D1B83ED9BE19093CD048093CC04C355DE
:104FB000DF4F8881CD5AD040C955DF4F1982188202
:104FC000C75AD040C755DF4F19821882C95AD040FE
:104FD000C555DF4F19821882CB5AD0404AE0BE0136
:104FE0006F5F7F4F90E00E940947BE016F5F7F4F68
:104FF000CE0189559F4F0E946020C255DF4F6881C6
:10500000CE5AD040CE018F559F4F0E946A20C15585
:10501000DF4F6881CF5AD040CE0185569F4F0E9406
:105020006A20BE0169557F4FCE0101960E94AB20D8
:10503000BE016F557F4FCE0101960E942F1FBE010A
:1050400065567F4F0E942F1FBC01CE018B569F4F8C
:105050000E94AB20CE0101960E94CC1C62EA75E250
:10506000CB56DF4F88819981C559D0400E94B0242A
:10507000BE016B567F4FCE0101960E94AB2065E8C2
:1050800072E0CE0101960E94191FBE016B567F4F40
:105090000E942F1F67E872E00E94191FBC01CE0119
:1050A00081579F4F0E94AB20CE0101960E94CC1CDD
:1050B000D20114962D903C90BE0161577F4FCE01D6
:1050C00087579F4F0E94AB2069E872E0CE018D5751
:1050D0009F4F0E949F22BE0167577F4FCE010196CE
:1050E0000E94AB2070E060E0CE0101960E94E51EB8
:1050F000BE016D577F4F0E942F1FBC01CE01835808
:105100009F4F0E94AB20CE0101960E94CC1CEF96CF
:105110006EAD7FADEF9741E0CE01845A9F4F0E9464
:10512000AD26E796EEADFFADE79780E090E0DC01BD
:10513000309721F083899489A589B6896090F90810
:105140007090FA08820D931D681679060CF063C101
:105150007E01B7E7EB0EF11CBE0163587F4FC7011C
:105160000E94AB208E010F5B1F4FA0968EAD9FADAE
:10517000A097F80193838283A4968CAD9DADAEADCC
:10518000BFADA49784839583A683B783A8968CAD7F
:105190009DADAEADBFADA89780879187A287B3873D
:1051A00080E292E0918380838DE0ECE5F0E0EC0F0B
:1051B000FD1F3C96DE01A35BBF4F01900D928A95C7
:1051C000E1F7E7968EAD9FADE797D8015A969C938D
:1051D0008E935997912C812C5801F8017996CD54D2
:1051E000DF4FF983E883C35BD040BE0167577F4F31
:1051F000CE0101960E94AB20B401CE0101960E941F
:10520000E51EBE016D577F4F0E942F1FBC01C701D5
:105210000E949420CE0101960E94CC1CD7016D9172
:105220007C9147E1CE0101960E94AD268B819C8145
:10523000F501938382838D819E81AF81B8858483BC
:105240009583A683B78389859A85AB85BC8580873E
:105250009187A287B387DE011D963C968D9181933D
:10526000CD54DF4F88819981C35BD040E817F9079F
:10527000A9F7EA8DFB8DD5015A96FC93EE935997C9
:1052800080E090E0DC01309721F083899489A58942
:10529000B6896101C80ED91E6C147D041CF4C801C6
:1052A0000E94D41CBFEF8B1A9B0A6C147D040CF473
:1052B0009CCFE7968EAD9FADE797009789F040E4CD
:1052C00050E0BE016F5F7F4F0E94D513009759F0E9
:1052D000AC01BE016F5F7F4FC8010E943019E9CF5A
:1052E00090E080E0F3CFC8010E94D41CCE01845A24
:1052F0009F4F0E94D41C61E675E2EF968EAD9FAD84
:10530000EF970E94B024C7010E94CC1CCE018358A5
:105310009F4F0E94CC1CCE018D579F4F0E94CC1CEA
:10532000CE0187579F4F0E94CC1CBE0161577F4F13
:10533000CE0101960E94AB2070E060E0CE010196A4
:105340000E94E51E69E872E00E94191FBC01CE01AF
:105350008F5B9F4F0E94AB20CE0101960E94CC1C18
:1053600023966EAD7FAD239747E1CE0101960E9453
:10537000AD26EA8DFB8D309761F08581882349F059
:10538000B201CE0101960E94881DCE0101960E94B5
:10539000D41CEA8DFB8D309721F011E085818111BD
:1053A00001C010E0CE018F5B9F4F0E94CC1CCE014C
:1053B00081579F4F0E94CC1CCE018B569F4F0E945D
:1053C000CC1CCE0185569F4F0E94CC1CCE018F5520
:1053D0009F4F0E94CC1CCE0189559F4F0E94CC1C30
:1053E000812FCC54DF4F0FB6F894DEBF0FBECDBF78
:1053F000DF91CF911F910F91FF90EF90DF90CF90B1
:10540000BF90AF909F908F907F906F905F904F90E4
:105410003F902F900895CE01845A9F4F0E94D41C34
:1054200075CF8F929F92BF92CF92DF92EF92FF92B1
:105430000F931F93CF93DF93CDB7DEB762970FB66D
:10544000F894DEBF0FBECDBFB82E0E94C0070091FA
:105450000E0410910F042091100430911104601B70
:10546000710B820B930B28EE33E040E050E00E947A
:10547000114C69017A016FE973E0CE0101960E9437
:10548000F01FCE0101960E94B4202CE3289F40011A
:10549000299F900C11248091BE0402E010E081301D
:1054A00011F001E010E0CE0101960E94CC1C809E1C
:1054B000C001819E900D909E900D1124092E000C2C
:1054C000AA0BBB0B8C159D05AE05BF0508F060C18E
:1054D0000E94C00760930E0470930F048093100421
:1054E000909311040E942B0A882309F451C1CE0124
:1054F0000D960E942D1B6DE973E0CE0107960E9468
:10550000F01F6F85CE0107960E94A01F6BE973E024
:10551000CE0107960E948F1E6E85CE0107960E94CF
:10552000A01F69E973E0CE0107960E948F1E6D856A
:1055300070E06053784FCE0107960E94731F67E9B1
:1055400073E0CE0107960E948F1E6889CE010796F0
:105550000E94A01F65E973E0CE0107960E948F1E8E
:105560006989CE0107960E94A01F63E973E0CE010E
:1055700007960E948F1E6A89CE0107960E94A01F7F
:105580006FE873E0CE0107960E948F1E04E318E0D7
:1055900028E0043F120709F440C0B8016F5F7F4F55
:1055A000CE0101960E94AB206EE872E0CE0101961A
:1055B0000E94191FFC014481558160817181CE01D7
:1055C00007960E94B91ECE0101960E94CC1CF801DC
:1055D000878181110CC0C084D184E284F384A70147
:1055E0009601C701B6010E94C84B882379F06CE888
:1055F00073E0CE0107960E948F1E69E873E0CE012A
:1056000007960E948F1E085E1F4FC2CFB701A601EA
:10561000CE0107960E94421FF0CF67E873E0CE01EB
:1056200007960E948F1E64E873E0CE0107960E94E1
:105630008F1E68E773E0CE0107960E948F1EC09010
:10564000AE04D090AF04E090B004F090B10420E03C
:1056500030E04AE754E4C701B6010E948D4988232F
:1056600049F020E030E0A901C701B6010E948D4950
:105670008111A0C065E773E0CE0107960E948F1EDE
:1056800062E773E0CE0107960E948F1E65E673E025
:10569000CE0107960E948F1EC090AA04D090AB0442
:1056A000E090AC04F090AD0420E030E04AE754E430
:1056B000C701B6010E948D49882349F020E030E0FF
:1056C000A901C701B6010E948D4981117AC062E625
:1056D00073E0CE0107960E948F1E6FE573E0CE0146
:1056E00007960E948F1E6FE473E0CE0107960E941A
:1056F0008F1E60915B0970915C0980915D099091AA
:105700005E096F3FF9EC7F07FAE98F07FBE39F071C
:1057100009F05EC06CE473E0CE0107960E948F1E14
:1057200069E473E0CE0107960E948F1E6CE373E07C
:10573000CE0107960E948F1E60917B0970917C09B3
:105740006F3F710509F055C069E373E0CE0107961C
:105750000E948F1EBB2089F0BE01695F7F4FCE0182
:1057600001960E94AB20CE0101960E94B027809343
:10577000A904CE0101960E94CC1CBE01695F7F4F37
:105780008EE397E00E94881DCE0107960E94CC1CF4
:1057900062960FB6F894DEBF0FBECDBFDF91CF91FA
:1057A0001F910F91FF90EF90DF90CF90BF909F904F
:1057B0008F900895B701A601CE0107960E94421F5F
:1057C0005FCFB701A601CE0107960E94421F85CF89
:1057D00024E630E040E050E00E94334CCA01B901B9
:1057E0000E949449AB01BC01CE0107960E94421F62
:1057F00097CFCE0107960E94731FACCF1F920F92D6
:105800000FB60F9211240BB60F922F933F934F9325
:105810005F936F937F938F939F93AF93BF93EF9318
:10582000FF938EE397E00E949005FF91EF91BF9167
:10583000AF919F918F917F916F915F914F913F9128
:105840002F910F900BBE0F900FBE0F901F901895C9
:105850001F920F920FB60F9211240BB60F922F9337
:105860008F939F93EF93FF93E0914E07F0914F0733
:105870008081E0915407F091550782FD1DC0908111
:10588000809157078F5F8F7320915807821741F0DF
:10589000E0915707F0E0E25CF84F958F809357074F
:1058A000FF91EF919F918F912F910F900BBE0F90D1
:1058B0000FBE0F901F9018958081F2CF1F920F920C
:1058C0000FB60F9211242F933F938F939F93AF9313
:1058D000BF9380919D0490919E04A0919F04B091EC
:1058E000A00430919C0423E0230F2D3758F5019636
:1058F000A11DB11D20939C0480939D0490939E0450
:10590000A0939F04B093A0048091A1049091A2045D
:10591000A091A304B091A4040196A11DB11D809390
:10592000A1049093A204A093A304B093A404BF91F4
:10593000AF919F918F913F912F910F900FBE0F903C
:105940001F90189526E8230F0296A11DB11DD2CFF6
:105950001F920F920FB60F9211240BB60F922F9336
:105960003F934F935F936F937F938F939F93AF93E7
:10597000BF93EF93FF93E0911202F09113021995F8
:10598000FF91EF91BF91AF919F918F917F916F9117
:105990005F914F913F912F910F900BBE0F900FBED3
:1059A0000F901F9018951F920F920FB60F9211240F
:1059B0000BB60F922F933F934F935F936F937F9309
:1059C0008F939F93AF93BF93EF93FF93E091100258
:1059D000F09111021995FF91EF91BF91AF919F91B5
:1059E0008F917F916F915F914F913F912F910F9088
:1059F0000BBE0F900FBE0F901F9018951F920F9225
:105A00000FB60F9211240BB60F922F933F934F9323
:105A10005F936F937F938F939F93AF93BF93EF9316
:105A2000FF93E0910602F09107021995FF91EF9123
:105A3000BF91AF919F918F917F916F915F914F91A6
:105A40003F912F910F900BBE0F900FBE0F901F90A4
:105A500018951F920F920FB60F9211240BB60F924A
:105A60002F933F934F935F936F937F938F939F9366
:105A7000AF93BF93EF93FF93E0910402F09105027F
:105A80001995FF91EF91BF91AF919F918F917F9168
:105A90006F915F914F913F912F910F900BBE0F909F
:105AA0000FBE0F901F9018951F920F920FB60F9276
:105AB00011240BB60F922F933F934F935F936F93E5
:105AC0007F938F939F93AF93BF93EF93FF93E09157
:105AD0000E02F0910F021995FF91EF91BF91AF91D6
